:400000000010002011000000B5030000B503000008B500F081FA00F0CFF90000F7B572B680220021D200554800F0EDFF802200215348D20000F0E7FF0023191C514C1859E1
:400040001034C2B20192071CFF2297434A00A4180022019ED5B2AE4209D05500665D6519B446BC446D78664635700132F1E7C0B204330918102BE1D1434BC02292041A60F8
:40008000424B99221A60424A00231360414A80211160414AC9031160404A40211160404AC021490311603F4A312113603E4B02221A603E4B802019603D4B3E491A60992317
:4000C0001B040B603C49000608603C493C200B603B4B8021890519603A493B4B19603B4B19780A431A703A4A117881431420014311701A7816210A431A70364A8023116893
:40010000DB020B431360344B141C1878334BC0B21978334BC9B21A78172A05D9314A58789978033B9342F6D12F4B192218602F4B052019602E4B1A6000F05EFD2D4B052061
:400140001A782D4BD2B21A6000F09EFE22682B4B134023602A4A2B4B1A602B4B10221A602A4B20221A602A4B802212061A60294A294B1A60294A2A4B1A60F7BD00300F40BF
:4001800000400F402410000004000140100001400C000140000004400800044000010440080104400803044000040440080404401804044000500F4004500F4010500F403F
:4001C00018500F40100001002001054000700F4001700F4000010B40CCF1FF0FCDF1FF0FC9F1FF0FBDF1FF0F1CFF0B4020FF0B402CFF0B40E5F1FF0F28FF0B40FFFFFBFF57
:400200000600008004010B40080202402002024008010B401000008000000240AF0400804000024010B5064C2378002B07D1054B002B02D0044800E000BF0123237010BDEC
:40024000F0000020000000002010000008B5084B002B03D00748084900E000BF07480368002B03D0064B002B00D0984708BDC0460000000020100000F4000020D00000200F
:400280000000000010B562B600F0ACFC00280ED16524012000F0E2FD00F0A4FC002806D1013CE4B2002CF4D1034B40221A6000F08BFC00F0DBFAFEE7C000002008B500F01E
:4002C00015FB00F04DFB00F0B5FB08BD70B5054B0D1C161C0024C9B21C8000F09FFB3580201C70BD0C010020F0B50A275F4387B003900591151C00262D4CBE4219DA00F0E6
:400300001DFB80B220802388002B0CD00220268800F0A4FD00F012FB80B220802388B6B2B342F3D807E00120013600F097FDB6B2E2E7052600E0002600272F802388002B4D
:4003400033D023889BB2019301992B885A18059992B22A808A4221D2019ABB189BB2029302998F4209D07B1C9BB20493039BDF1900F0CAFA3870049FF2E772B62388019AF8
:400380009B1A9BB2238062B6039A5318013B1B78172B08D0052000F061FD04E02B8000F0DFFA052601E0029FC8E7301C07B0F0BD0C010020FEE7000070B51048104B013895
:4003C000421C15D01E685C689D680022A118AA4203D0B158A1500432F8E7DA680D1C4C1B944202D0002410C1F9E710330138E7E700F0DAFDFFF746FFFEE7C046010000003B
:400400007410000008B500239A00032B02D80D49895800E00C490D4801338150302BF3D1FFF7FCFD0A4B00221A600A4B1A68002A00D11A608023DB051A6801210A431A60B7
:4004400008BDC04600000000B503000000000020C8000020C0000020004770B5051C0E1C141C002802D0002000F0EAFC0020002C05D0013CAA19125D8318D8B2F7E770BD7A
:40048000013808B509282AD8C901494200F078FD0507090B0D0F1614181B154B08E0154B12E0154B0DE0154B0EE0154B00E0154BC9180878C0B21AE0134B02E0134B00E0A0
:4004C000134BC9180FE0134BC9180B7848788A780002120410431843CB781B0606E0002000F0AEFC00210B7848780002184308BDC07F0000C17F0000C57F0000C97F0000EF
:40050000D07F0000D17F0000D67F0000D27F0000D47F0000D87F00000C4B10B51A6810231A400B4B00D11A601A68802A0DD100240220211C1C60FFF7A3FFA04205D0211C6B
:400540000220FFF79DFFFFF787FF10BD00030B40C0000020F8B5051C291C0320FFF790FF291C041C0420FFF78BFF671CFF013F18291C0320FFF784FF00240130C001261C79
:40058000B84209D203785A1ED2B2FD2A00D801261C19E4B20130F3E70120291CFFF770FF6442E4B20623844203D17242564176423340181CF8BD0000F0B5A44CA544FFF756
:4005C0007DFE62B600260096002506AC03AE9621201C4900321CFF23FFF786FE0028F4D13188062900D88AE022780423012A54D1E778A2783F021743E2195679B44616796F
:400600000196FE1D8E427FD89279172A45D1FB189BB2002B08D09CA98D4ECA1892191278013B801880B2F3E7019B614640420A0280B21A43082382422FD167E0342B00D040
:400640009DE0009901295AD1032F58D151A80021802200F0D8FC802551A948192639ED19FA1EFF39ADB200F0C5FC832D49D1A079637900021843774B36021B6880191A68BB
:4006800080B2D3099BB2560601D001339BB298427BD20127009700250A2300210120207068466A46437681766B4600200E32D8760B1D11809BB29CAFFE18654F013BF61954
:4006C00036789BB2801980B2002BF4D19CAE624F7318DE194042614F80B23070DE19000A30705F4807311B181720187089B2201C9623FFF7EBFD68E7009E012E1BD0042315
:40070000CBE70126009600250323C6E763782679181C31380A2801D90523BEE700F03AFCECFF1400FCFF8EFF3F00FCFF430054008EFF63008B00002FE1D1381CFFF70AFF35
:4007400043424341237173E000980128D7D1012FD5D1002ED3D13F4B1B681B68DA0BD2B2DB09DBB2002A01D080235B0023711B0A6371FF23A3710023E37104218EE7009BA6
:40078000012BBCD1022FBAD966E751A900F048FA002800D07DE701260096051C12E0009F012FACD110E7009E012EA8D19623EE195B009E42A8D851A948193A1C07A900F0C2
:4007C00019FCB5B2002368E7002F98D104AB254A191C41CA41C107AA41CB41C2012600963B1C08215AE70098012888D1032F86D1A37962791B021A43310251180192C901C8
:4008000000208022FFF729FE071C002E0ED10199FF290BD1311C0520FFF732FE311C3F1A0620FFF72DFEFFB23F1AFFB27F4227710023012132E70020FFF78CFE002802D179
:40084000094B80221A6000F0FDFA58E78CFDFFFFA7FDFFFFD4000020ACFDFFFFADFDFFFFAEFDFFFF48100000C000002038B50020FFF770FE0025A84200D00625124C00209C
:400880002368C0211A68C03AFFF7E7FD62681378181AC0B2984203D123681B68002B02D1002000F0CDFA094B19681A1C402901D0002D03D000231360FFF77EFE80221A6083
:4008C00000F0C0FA38BDC046D4000020C000002008B5054B8022196812060A431A600A2000F09AFA08BDC0460000064010B5054C2378002B03D100F0BFF801232370FFF7AD
:40090000E7FF10BD10010020094B0A4A1968136899420BD011684B1C4039481E814149420B400549C85C1360C0B200E000207047B0010020280100206C010020064B074ACB
:400940001B6811688B4202D31068181A02E012684133981A7047C046B0010020280100200C4A0D4B002130B5106811601D68802464022C431C601D68084C2C401C60084BAB
:400980001C68084B1C60084B19700849084B1960106030BDC80F064004030640FFFFFEFF28010020B0010020AD010020ED0F0000C00F0640124910B50A68531C3F3A541E44
:4009C000A241524213400F4A1468A342FBD00C681268944208D10C4A14680F222240082A02D00A4B18600AE0094C02222260094CC0B2E0540B60084B19680A431A6010BD22
:400A000024010020200100200802064040020640800F06402C010020880F064038B5041C4518AC4204D02078FFF7C4FF0134F8E738BD00000B4A0023116810B513600A4B55
:400A400080201C684002204318601C68074820401860074B1868074B186002239943116010BDC046880F064004020640FFFFFEFF20010020240100201D4A1E4B10B51A60F0
:400A80001D4B00241C601D4B01221A601C491D4B07200B601C4908601C490A200C601C490A601C4A13601C4B1C6000F0BFF90A20032100F091F919490A2000F081F9184BAE
:400AC00004221C60174B1C60174B1C60174B1C60174B1A60174B1C60174B1C60174B1C60174B1C70174B1C60174B1C6010BDC0460B00000200000640400006404800064060
:400B0000000306400700008004030640100306404400064000020640040206409D0E0000880E0640C80E0640480F0640080F0640C80F0640880F0640B00100202801002070
:400B4000AD01002024010020200100200E4B8422D2041A601968802252020A431A600B490B4A0A60196819600A4BC32189001960094B00211960094B1C211960084B1A6087
:400B8000084A094B1A60704700010540080105401027000024010540380105402801054014010540881300000C01054008B500F02DF8044B01211A680A431A6000F02AF858
:400BC00008BDC0460000054010B5054C2378002B03D1FFF7BBFF01232370FFF7E7FF10BD18010020024B18680006C00F7047C04604000440000000000230800804D0C046B1
:400C00000138FDD1C046C046C0467047EFF3108072B6704780F310887047C046C046C046F0B50024CBB0069404900794FF2800D9A4E0A14200D1A1E008AD8022281C00F06E
:400C4000D9F9231C211C221C029498002858002802D01218014302930133202BF5D1002A05D1002900D08EE00191039102E0002001900390484F7F2328AE291C80222AA87D
:400C80002897464C736000F0B5F9454A454B266013602168090F0A2903D022680F23134000E000230693069F002F69D1FFF7AEFF3D4A3E4B116807971960069B0590002B56
:400CC00014D13B4A04982892289A01040A43289228AA22603249374A0A602268120F0A2A03D02E4B1A680F2313400693069F002F38D1019A002A35D0391C8022281C00F00F
:400D000082F90298039A08A983005A50224B2AA8289380227F23736000F06CF9214820492660086023681B0F0A2B03D01B4B1F680F231F400697069B002B13D11E4A049871
:400D40002892289A01040A43289215491B4A26600A602268120F0A2A03D0104B1A680F2313400693079B002B04D1104A0E481268026007930598FFF74DFF01E00423069343
:400D800006984BB0F0BD02998B00E85801210390EA5001916EE7C046B6D7000008000040040000400400008008010B401C010020B6D8000005000080B6D900000600008055
:400DC0001F2800D901BE034A80008318186819607047C0464000002038B5041C0D1E032D00D901BE1F2C00D901BEFFF70FFFA308084A9B009B18032214409440196806345C
:400E0000A2409143A5400C1C2C431C60FFF702FF38BDC04600E400E01F23184001238340181C014B1860704700E100E01F23184001238340181C014B1860704780E100E0EC
:400E400001BE7047034B04491A6892B20A431A607047C0460CED00E00400FA0510B5041C8022074B1202944205D91868FFF7C4FE044BE418F4E758686043FFF7BDFE10BD5B
:400E8000DC0000200080FFFF08B5034B1B7A5843FFF7B2FE08BDC046DC000020274B10B51B68002B00D09847254B1B685A071DD5244B1B681A0716D0234B244A1868116868
:400EC0004B1C40394C1EA14149420B40204909688B4203D11F4B20221A70E9E71E49C0B2C8541360E4E71D4B04221A601C4B1B689A0721D51B4B1A680F231340082B18D02B
:400F0000194B1A4A1968136899420DD011684B1C3F39481E814149420B401549C85C1549C0B208601360E5E7134B02211A688A431A60124B02221A6010BDC0461401002099
:400F4000CC0F06400803064040030640B001002028010020AD0100206C010020C00F06408C0F06400802064024010020200100202C01002040020640880F0640800F0640AE
:400F800002B4714649084900095C49008E4402BC7047C04603B47146490840004900095E49008E4403BC704770B50E4B0E4D0024ED1AAD101E1CAC4204D0A300F358984765
:400FC0000134F8E700F044F8084B094D0024ED1AAD101E1CAC4204D0A300F35898470134F8E770BD5C1000005C1000005C1000006410000010B50023934203D0CC5CC4548E
:401000000133F9E710BD031C8218934202D019700133FAE770470000A8100000EE0000000000000001330F4003410F4004430F4002600F40E61062048E04D84018808C40AD
:40104000C608E608020111019311C804111E0101F8B5C046F8BC08BC9E4670474D02000005040000F8B5C046F8BC08BC9E4670472502000088100000D0000020200000004B
:40108000C80000000000000000000000181000001C1000000000E02EC05D00001800000000366E01000000000000000000000000000000000000000000000000000000002C
:4010C00000000000000000000000000000000000000000000000000000000000000000000000000000000000000000000000000000000000000000000000000000000000F0
:401100000010002011110000D5130000D513000010B5024B83F3088800F064F90010002070B5194C23688022D20213432360182000F0BCFF2268154B13402360144A154B33
:401140001A602022144B1A60103A144B1A602032134B1A6080221206124B1A6000252560114A124B1A60124A124B1A60124A134B1A601349092000F057FF092000F03EFF98
:40118000104B1D6070BDC04600010B40FFFFFBFF0600008004010B4014020240180202402002024008010B40FE00008000000240FE0000C04000024001000080800002405B
:4011C000BD2200000C020B4010B572B600240FE028486200131959000B00411889881A5AC31858880004104300F0C8F80134E4B2012CEDD91F4801000C313C3000F0A4F85A
:40120000C02292041C4B1A60EE2212021B4B1A60992212041A4B1A6080239B0519490B6019490A60194A136019490B783C22934314221343DBB20B70164A117816230B43D2
:40124000DBB213707E22144B1A60C0225203134B1A603E22124B1A60D8221201114B1A600423114A1360114A1360FFF759FF00F0ABF810BD90290000040001400C00014000
:4012800010500F4018500F4030500F4038500F4001700F4000700F4000010440080104401801044008030440000404401804044010B5064C2378002B07D1054B002B02D0BB
:4012C000044800E000BF0123237010BD80010020000000008C290000084B10B5002B03D00749084800E000BF07480368002B00D110BD064B002BFBD09847F9E7000000004B
:40130000840100208C290000C80000200000000010B562B600F0CCFA00F024FB00F022FA00F024FE00F00AF90028FBD100F05CFC044B984201D000F0C9FD00F043FC00F0AD
:4013400011FAEFE7FFFF0000F0B50025002711E0BB00C658F3B2FF22964308E06A008A181478A419527822700135013BDBB2002BF4D10137052FEBD9F0BDC04610B50A00FA
:40138000002101F0FBFA10BD0C4B1B68002803D080221206134301E05B005B08074A1360074B1B68002803D080229204134301E0044A1340024A13607047C04680031A40D8
:4013C00008010B40FFFFFFFD10B50120FFF7DCFF10BDC04610B501F0A5FA03680C2B00D1FEE7FEE770B50F4E0F4D13E029686B68AC68002202E001C901C30432A242FAD1C3
:40140000E868002202E0002102C304328242FAD11035013E002EE9D101F08AFAFFF778FFFEE7C04601000000142B000010B500230AE0032B03D89A000C49505800E00C488E
:4014400099000C4A885001332F2BF2D9FFF7BCFE094B1B68002B02D10022074B1A608022D205116801230B43136010BD00110000D513000000000020C000002070B51648B9
:401480000368DBB2154A13700F24A3431900144D2B780F2213400B43E13293432A78A243134303600F4A104B1A60104A104B1A60104A1168104B0B40C021C9000B431360E0
:4014C0000F2000F0A5FD0D490F2000F0ADFD03210F2000F0BBFD70BD00FF0840FC01002062F1FF0F00020001080008400008A0010400084010000140FFF0FFFF651C000018
:4015000010B500F069FD00F04BFD0021002000F04FFD0021002000F067FD00F053FD00F035FD044A136804490B4313600F2000F065FD10BD0400084000100880024B1878FE
:40154000012318407047C0469C0100204000024B181880887047C0469C010020F8B5104F3E5C3818037A5D005D19EDB29B00DCB200F000FFB300FB181E6932680F21A14041
:401580008A4311000422A2400A435C6A23680721A9408B432360326000F0F0FEF8BDC046E4290000F8B5194A145C13181F7AB900C9B27D007D19EDB2154B185CA300D31881
:4015C0001E6933680F228A4093433360022800D10020012801D1002600E0062600F0CAFEA4000A4B1C19616A0B680722AA4093431A003300AB4013430B6000F0BFFEA16B5E
:401600000B680122BA4093430B60F8BDE42900002002002010B5002403E02000FFF7C2FF0134042CF9D910BD044A11684002C023DB001840084310607047C046040008404B
:40164000CA0807231940063B8B40825C134201D0012000E00020704710B504000134E4B2052C06D0210004480430FFF7E9FF0028F4D0200010BDC046CC000020F8B5040097
:40168000234B1B184C229B5C9B00224A9E5801002148FFF7D5FF214B9E4203D88640FF231B041E431E4B185D013880B2002100F07FFC1C4B185D013880B2002100F094FCA7
:4016C0000F2000F0A5FC18480168184B1940184B1B5D184A125D120413430B430360164F3D68164B1D40164B1D430F2000F086FC2000FFF733FF00F03DFE04003D6000207E
:4017000000F02EFE0F4B1E60200000F037FEF8BDE4290000CC00002000020020FFFFFEFF28020020080200200800084000FF80FF100200201802002004000840FF1FDFFFAF
:40174000200020000C00084010B5054B00221A70C2B29A7381221A70FFF790FF10BDC0469C01002010B50C4C00232370FF33A373A07BC0B2FFF770FFA073A37BDBB2042B57
:4017800008D8217801230B43DBB22370A07BC0B2FFF774FF10BDC0469C01002070B50500184B1C68A4B24300174AD3189C80174B1B184C229B5C9B00154A9A58154B9A4264
:4017C00008D801001448FFF73BFF6B000E4AD31804419C802800FFF7E5FE0F2000F018FC0E4A11680E4B0B40A02109020B4313600C4A11680C4B0B4013600F2000F0FEFB3B
:4018000070BDC0460C0008409C010020E4290000CC000020FFFFFEFF0002002004000840FF1FDFFF0800084000FF80FF10B5CC0807231940063B8B40DBB2002A04D0041968
:4018400022781343237003E0041922789A43227010BDC04670B50600002400250BE03000FFF772FFFFF76AFE0128FBD03000FFF76DFE24180135002DF1D0A0B270BDC0464B
:40188000014B19547047C0462002002010B5002404E000212000FFF7F3FF0134042CF8D9FFF7ECFD0020FFF7BFFEFFF7B3FE10BD10B50B4BDB7B002B04D1FFF7E7FF0122AE
:4018C000074BDA73FFF71CFE00F092FA0122044B1A74044A13688021C9030B43136010BD9C01002004000840F0B5002714E00C4BDE5D0C4BDB5DF6181A00002404E08D5CF6
:40190000AC4200D22C000132B242F8D301E0CC540133B342FBD301378742E8D3F0BDC0464C2A0000502A00004300054A9A5A05495A52081800210173017503495A52704718
:40194000A0010020B00100204002002010B50400FFF7FAFEFFF7F2FD0028FBD12000FFF7E3FF10BD10B5002403E02000FFF7EEFF0134042CF9D910BD70B5094D14352D1842
:401980000026FF20002308E0EC5C944203D9A64201D2260018000133DBB28B42F4D370BDB0010020F0B583B004000192009308AB1878344B14335918002C02D0661EF6B2EB
:4019C00000E00026631CDDB20B5D9C462D4B243362465A70002C07D12A4B002624229E544A5D24339A7012E0019A013A944207D1895D244B24229954243300229A7006E002
:401A00008E5D204B24229E544A5D24339A7024231C4AD35C834204D91B1A242219498B5403E000212423174AD154164A243253781B1ADBB253709278904204D2101A114AC8
:401A40002432907003E000210E4A243291700D490A00243292782420095C501AC9188918000200F073FE240200196B4600255D5F6843FE23DB019C466044000CC0B203B075
:401A8000F0BDC046B0010020401849004018800880B27047F0B5474680B482B004003C4B1E5C3C4B9B5D019342003B4BD75A3B4B5B7A002B08D03A4D9046515B3800FFF7FA
:401AC000E3FF070043465853E1B2334A354800F019FD6300344A9A5A974207D30021334B1955BD1AADB20123984603E0D51BADB2002398464346002B15D12D4B9B5D9D424D
:401B000011D92A4B1B5D254A12191279934206D32000FFF709FF0022244B1A551EE00133224A13551AE06B469B889D4206D9204B9B5D9D4212D24346002B0FD113029C469A
:401B4000194801190B7B66463343FF18BF1A3A0A6300C2520F730022144B1A556B469E88B5420DD94346002B0AD0FF2D04D90E4B1C19FF23237507E00B4B1C19257503E0A3
:401B8000094B1C190023237502B004BC9046F0BD302A000030020020A0010020E80000204002002090020020B0010020340200203C02002010B5040000F0A2F82000FFF775
:401BC00069FF10BD10B5002409E021000548FFF737FD002802D02000FFF7ECFF0134042CF3D910BDD000002030B583B00400194B1B181D7B184B1A5C05210020FFF7BCFE43
:401C0000FF281FD0154B1B5D0093C8235B0105220021FFF7C7FE010080B26B1CDBB20D4A5219127B002A06D10A4AD3181973551901232B730BE0074CE418217BFFF724FF58
:401C4000207304E0034B5D1900232B73044803B030BDC046E80000205002002030020020FFFF000010B50F2000F0D2F901221E4B1A601E4B1878C0B2FFF790FD1C4B1B780F
:401C80005BB2002B05DA1A4A137801218B43137026E0164C2078C0B2FFF7DEFC20702378DBB2042B05D8114B1878C0B2FFF7E6FC16E00F4B1A7801218A431A701B785B0620
:401CC0000ED500220B4B1A7006E00B4AD15C0B4AD1540133074A1370064B1B78002BF4D00F2000F08BF910BD14000840AA0100209C010020D701002004020020D0000020E0
:401D000070B582B0154B1C5C154EC1B2154D009533002200144800F073FC335D295D134A1155DB2B03D8DB08114A135514E0EC2B03D81B090E4A13550EE0F42B03D85B0921
:401D40000B4A135508E0F92B03D89B09084A135502E00022064B1A5502B070BD302A00005002002030020020900200203C0200204C020020024A136840218B431360704702
:401D800004000840044A1168044B0B40802189000B4313607047C04608000840FFFCFFFC70B5002208E00D498B5C5D080C4CA55401335B088B54013203789A42F3D30F2071
:401DC00000F026F9074A1168074B0B4007490B4313600F2000F012F970BDC046100200201802002008000840FFFCFFFC0002000170B5254B05221A70012159709A701332CA
:401E0000DA80224A9A80224A9A60FFF7B3FF002304E099001F48204A885001331A4A52789342F6D3002306E004211C4AD15402391B4AD1540133042BF6D9FFF7A3FF194EBC
:401E4000114C3100200000F0BDFA174D29000120FFF74AFD200000F0C6FA3100200000F0B1FA29000120FFF73FFD200000F0DCFA2000FFF795FF002403E02000FFF740FFFE
:401E80000134042CF9D970BD90020020CC040000542A00000000FF0FCC00002008020020280200209A0D0000100200200004000C014B18607047C046080105400004000C88
:401EC000014B18607047C046140105400004000C014B18607047C0460C01054070B504000D0000F047FAAC40024B1C6000F046FA70BDC0460800054010B500F03BFA064A1E
:401F0000116801230B43136000F038FA18210120FFF7E4FF10BDC04600000540014B18607047C0463801054010B50D4C8023DB042360236823600020FFF7B8FF23682360CB
:401F40000C22084B1A600120FFF7E8FF3122064B1A606420FFF7B2FF3220FFF7B7FF10BD00010540240105402801054010B5064B1B78002B04D1FFF7D7FF0122024B1A70C7
:401F8000FFF7BAFF10BDC046D8010020034A1368802109060B4313607047C04600000240024A13685B005B081360704700000240034A13681B0C1B04034313607047C046F9
:401FC00000000240034A1368802109060B4313607047C04640000240024A13685B005B081360704740000240034A13681B0C1B04034313607047C046400002401F23184056
:402000001E3B8340014A13607047C04600E100E01F2318401E3B8340014A13607047C04680E100E001BE704770B504000D001F2802D90020FFF7F6FF1034A40080239B05D2
:402040009C4664442068256070BDC04670B504000E00032902D90020FFF7E4FF1F2C02D90020FFF7DFFF03252540ED00063500F081F9A408A400074B9C466444216803234B
:40208000AB4099430B003100A9401943216000F075F970BD00E400E010B5034B1B7B584300F05EF910BDC04600010020F0B557464E46C0B483B0040000F05CF90190E71E2D
:4020C0002D2F74D83F4B1B78DBB29C4208D83E4B1B78DBB29A463D4B1B78DBB2994631E03B4B1B78DBB29C4208D83A4B1B78DBB29A46394B1B78DBB2994623E0374B1B782B
:40210000DBB29C4208D8364B1B78DBB29A46354B1B78DBB2994615E0334B1B78DBB29C4208D8324B1B78DBB29A46314B1B78DBB2994607E02F4B1B78DBB29A462E4B1B789E
:40214000DBB299462D4BDE5D2F2E09D92A2C07D919222B4B1A60052000F002F9192503E0274B1D683F231D40B54206D9234BDA5D234B1A60052000F0F3F81F4B9C46644462
:402180002378DBB21F4A13601F4B52461A601F4B4A461A600520FFF77FFFB5420AD2174BDA5D174B1A60052000F0DAF802E00020FFF738FF019800F0E1F803B00CBC914680
:4021C0009A46F0BDC0F1FF0FC1F1FF0FC2F1FF0FC3F1FF0FC4F1FF0FC5F1FF0FC6F1FF0FC7F1FF0FC8F1FF0FC9F1FF0FCAF1FF0FCBF1FF0FCCF1FF0FCDF1FF0FC02A00009B
:402200002CFF0B4028FF0B401CFF0B4020FF0B40034B1868C0231B02184000D00120704700010B4010B500F0A5F8044A1368C02109020B43136000F0A1F810BD00010B4062
:4022400010B500F097F808490A68084B1A408024E40122430A600A6813408022120213430B6000F08BF810BD00010B40FF3FFFFF70B5050000F07EF80400FFF7C9FF0028D4
:4022800003D0FFF7DDFF012100E0002108482840084A1568084B2B40184310601368012901D1FFF7BFFF200000F068F870BDC0460404040010020B40FBFBFBFF10B5244BEB
:4022C0001B685B0715D5234B1B685B070ED5224BD969042001401F4C22688A432260DA698243DA611B69002B00D098470420FFF7BFFF174B1B685B0518D5164B1B685B0592
:4023000010D5154BD9698022D2001140114802688A430260D969114A0A40DA615B69002B00D098478020C000FFF7A2FF084B1B685B030CD5074B1B685B0304D5064B9B6932
:40234000002B00D098478020C002FFF791FF10BD10020B4014010020DC010020FFFBFFFF0230800804D0C0460138FDD1C046C046C0467047EFF3108072B6704780F3108887
:402380007047C046F7B59C180023071C08268025019100922370237800982B432370BB689B6C9847019B984202D22378AB432370013E6D08002EEED12378F82B01D9F82339
:4023C0002370F7BD70B5051C0E1C00242B789C4208D2AB68221C281C311C1B68FFF7D2FF0134F3E770BD38B5051C00242B789C4219D2AA6813681B5DDB080F2B00D90F2374
:40240000D16BD268C95C1155AA68042B04D9936D906B211C012203E0936D906B211C002298470134E2E738BDF0B5041C002687B063789E4262D2A3685A6C925D0392002A83
:4024400001D1013203921A6C925D019201992278914251D29A689B69515C0F221140B2000492002205910499019D5A50019B5B000293039B019A9B189D423DD2A768E38896
:40248000A0885843FB68595D00F060F93B68595D00F0D2F8059B5843194B40005A2802D95B084008FAE7BA6904991B0C1B045350A36882085B6B01215855A368C008DB6932
:4024C000029F5A550F22A36849421B6A5855A3685B6A5A55A368986AC1530021D86AC153186B9B68C1535B19197801350A401A703B1C02330293BCE7013699E707B0F0BDF4
:402500000000FFFFF0B585684E002B6B925B9B191C8887B0141B0094AC6A1A80A45B6B6A0294EC6A5F5CA45B2B6A03946C6B7F00645C5B180494AC680193645C1B780594DD
:40254000009CE40FA4460F24251C6744009C3D40AC46E51764196C409C4203D2012B05D0013B00E00133FF273F2B00D89F00019D2B7065460F2D29D0002D24D0BC4225D853
:40258000059C029F24090094974200D9171C039D954200D2151C009A092A01D8141C01343A1C0A2C14D1EA1B934206D9049A92089A42924152429B1A00E001338268D2691B
:4025C00053543A1C04E0151C644601E0151C00246746836824015B6A5F5483689F6ABA53DA6A9B6895530F225B181D782A401A7083689B6859180B781C430C7007B0F0BD36
:4026000070B58068446BC069655C405CFF213F2801D88100C9B246B2FF24002E01DB4000C4B28D4201D9291C6C08012081439954049B9C5470BD0000002243088B4274D3B0
:4026400003098B425FD3030A8B4244D3030B8B4228D3030C8B420DD3FF22090212BA030C8B4202D31212090265D0030B8B4219D300E0090AC30B8B4201D3CB03C01A52415B
:40268000830B8B4201D38B03C01A5241430B8B4201D34B03C01A5241030B8B4201D30B03C01A5241C30A8B4201D3CB02C01A5241830A8B4201D38B02C01A5241430A8B4232
:4026C00001D34B02C01A5241030A8B4201D30B02C01A5241CDD2C3098B4201D3CB01C01A524183098B4201D38B01C01A524143098B4201D34B01C01A524103098B4201D366
:402700000B01C01A5241C3088B4201D3CB00C01A524183088B4201D38B00C01A524143088B4201D34B00C01A5241411A00D20146524110467047FFE701B5002000F0F0F80C
:4027400002BDC0460029F7D076E7704703460B437FD4002243088B4274D303098B425FD3030A8B4244D3030B8B4228D3030C8B420DD3FF22090212BA030C8B4202D31212CA
:40278000090265D0030B8B4219D300E0090AC30B8B4201D3CB03C01A5241830B8B4201D38B03C01A5241430B8B4201D34B03C01A5241030B8B4201D30B03C01A5241C30AAA
:4027C0008B4201D3CB02C01A5241830A8B4201D38B02C01A5241430A8B4201D34B02C01A5241030A8B4201D30B02C01A5241CDD2C3098B4201D3CB01C01A524183098B4268
:4028000001D38B01C01A524143098B4201D34B01C01A524103098B4201D30B01C01A5241C3088B4201D3CB00C01A524183088B4201D38B00C01A524143088B4201D34B0000
:40284000C01A5241411A00D201465241104670475DE0CA0F00D04942031000D34042534000229C4603098B422DD3030A8B4212D3FC22890112BA030A8B420CD38901921175
:402880008B4208D3890192118B4204D389013AD0921100E08909C3098B4201D3CB01C01A524183098B4201D38B01C01A524143098B4201D34B01C01A524103098B4201D3D7
:4028C0000B01C01A5241C3088B4201D3CB00C01A524183088B4201D38B00C01A5241D9D243088B4201D34B00C01A5241411A00D20146634652415B10104601D34042002B56
:4029000000D54942704763465B1000D3404201B5002000F005F802BD0029F8D016E770477047C046014B18687047C046780100200E4B70B500251E000D4CE41AA410A5425E
:4029400004D0AB00F35898470135F8E700F0D0F8084B00251E00084CE41AA410A54204D0AB00F35898470135F8E770BDFC2A0000FC2A0000FC2A0000042B00000300821835
:40298000934202D019700133FAE770470000000000300F40000400400F40000438803E4058045F011801B401E61062048E04D8406C407008DC03188061028C40A102B448D6
:4029C000B502C608D802E608EC08000004300F4001310F4002330F4003410F4003420F400A430F400101010101000000010203040500000000000140040001400800014068
:402A00000C0001401000014008000440080104400802044008030440080404400000044000010440000204400003044000040440000000000000000002000000040000000E
:402A400008000000100000002000000005000000000000001002002018020020F80000200802002028020020302A0000CC00002070020020540200205C02002084020020AF
:402A800064020020780200209C02002000020020B02A0000502A00004C2A0000551800007D1600004D150000411600002D180000010101020202020404040404040404041F
:402AC000030405060708090A0B0C0E0F101112131415161718191B1C1D1E1F2021222325262728292A2B2E2F3031323334354300F8B5C046F8BC08BC9E467047D9120000F2
:402B00002D140000F8B5C046F8BC08BC9E467047B1120000282B0000C8000020B80000002801000000000000000000000000FF0F1F0000000801044008010440080104409B
:402B40000801044008010440010000001E1E1E1E1E010000010000000202020202000000010000000000E02EC05D00001800000000366E0104040400000000000000000023
:402B8000000000000000000000000000000000000000000000000000EE2A0000000000000000000000000000000000000000000000000000000000000000000000000000FD
:402BC000000000000000000000000000000000000000000000000000180100200000000000000000000000000000000000000000000000000000000000000000000000009C
:402C00000000000000000000000000000000000000000000000000000000000000000000000000000000000000000000000000000000000000000000000000000000000094
:402C40000000000000000000000000000000000000000000000000000000000000000000000000000000000000000000000000000000000000000000000000000000000054
:402C80000000000000000000000000000000000000000000000000000000000000000000000000000000000000000000000000000000000000000000000000000000000014
:402CC00000000000000000000000000000000000000000000000000000000000000000000000000000000000000000000000000000000000000000000000000000000000D4
:407FC000741111000021000000001B0000000000000001000000000000000000000000000000000000000000000000000000000000000000000000000000000000000000AE
:0200000490303A
:02000000E3EF2C
:0200000490402A
:20000000FFFFFFFF00000000000000000000000000000000000000000000000000000000E4
:0200000490501A
:0C000000000204C81193110004D5F58221
:0200000490600A
:0100000001FE
:00000001FF