:400000000010002011000000B5030000B503000008B500F081FA00F0CFF90000F7B572B680220021D200554800F0EDFF802200215348D20000F0E7FF0023191C514C1859E1
:400040001034C2B20192071CFF2297434A00A4180022019ED5B2AE4209D05500665D6519B446BC446D78664635700132F1E7C0B204330918102BE1D1434BC02292041A60F8
:40008000424B99221A60424A00231360414A80211160414AC9031160404A40211160404AC021490311603F4A312113603E4B02221A603E4B802019603D4B3E491A60992317
:4000C0001B040B603C49000608603C493C200B603B4B8021890519603A493B4B19603B4B19780A431A703A4A117881431420014311701A7816210A431A70364A8023116893
:40010000DB020B431360344B141C1878334BC0B21978334BC9B21A78172A05D9314A58789978033B9342F6D12F4B192218602F4B052019602E4B1A6000F05EFD2D4B052061
:400140001A782D4BD2B21A6000F09EFE22682B4B134023602A4A2B4B1A602B4B10221A602A4B20221A602A4B802212061A60294A294B1A60294A2A4B1A60F7BD00300F40BF
:4001800000400F402410000004000140100001400C000140000004400800044000010440080104400803044000040440080404401804044000500F4004500F4010500F403F
:4001C00018500F40100001002001054000700F4001700F4000010B40CCF1FF0FCDF1FF0FC9F1FF0FBDF1FF0F1CFF0B4020FF0B402CFF0B40E5F1FF0F28FF0B40FFFFFBFF57
:400200000600008004010B40080202402002024008010B401000008000000240AF0400804000024010B5064C2378002B07D1054B002B02D0044800E000BF0123237010BDEC
:40024000F0000020000000002010000008B5084B002B03D00748084900E000BF07480368002B03D0064B002B00D0984708BDC0460000000020100000F4000020D00000200F
:400280000000000010B562B600F0ACFC00280ED16524012000F0E2FD00F0A4FC002806D1013CE4B2002CF4D1034B40221A6000F08BFC00F0DBFAFEE7C000002008B500F01E
:4002C00015FB00F04DFB00F0B5FB08BD70B5054B0D1C161C0024C9B21C8000F09FFB3580201C70BD0C010020F0B50A275F4387B003900591151C00262D4CBE4219DA00F0E6
:400300001DFB80B220802388002B0CD00220268800F0A4FD00F012FB80B220802388B6B2B342F3D807E00120013600F097FDB6B2E2E7052600E0002600272F802388002B4D
:4003400033D023889BB2019301992B885A18059992B22A808A4221D2019ABB189BB2029302998F4209D07B1C9BB20493039BDF1900F0CAFA3870049FF2E772B62388019AF8
:400380009B1A9BB2238062B6039A5318013B1B78172B08D0052000F061FD04E02B8000F0DFFA052601E0029FC8E7301C07B0F0BD0C010020FEE7000070B51048104B013895
:4003C000421C15D01E685C689D680022A118AA4203D0B158A1500432F8E7DA680D1C4C1B944202D0002410C1F9E710330138E7E700F0DAFDFFF746FFFEE7C046010000003B
:400400007410000008B500239A00032B02D80D49895800E00C490D4801338150302BF3D1FFF7FCFD0A4B00221A600A4B1A68002A00D11A608023DB051A6801210A431A60B7
:4004400008BDC04600000000B503000000000020C8000020C0000020004770B5051C0E1C141C002802D0002000F0EAFC0020002C05D0013CAA19125D8318D8B2F7E770BD7A
:40048000013808B509282AD8C901494200F078FD0507090B0D0F1614181B154B08E0154B12E0154B0DE0154B0EE0154B00E0154BC9180878C0B21AE0134B02E0134B00E0A0
:4004C000134BC9180FE0134BC9180B7848788A780002120410431843CB781B0606E0002000F0AEFC00210B7848780002184308BDC07F0000C17F0000C57F0000C97F0000EF
:40050000D07F0000D17F0000D67F0000D27F0000D47F0000D87F00000C4B10B51A6810231A400B4B00D11A601A68802A0DD100240220211C1C60FFF7A3FFA04205D0211C6B
:400540000220FFF79DFFFFF787FF10BD00030B40C0000020F8B5051C291C0320FFF790FF291C041C0420FFF78BFF671CFF013F18291C0320FFF784FF00240130C001261C79
:40058000B84209D203785A1ED2B2FD2A00D801261C19E4B20130F3E70120291CFFF770FF6442E4B20623844203D17242564176423340181CF8BD0000F0B5A44CA544FFF756
:4005C0007DFE62B600260096002506AC03AE9621201C4900321CFF23FFF786FE0028F4D13188062900D88AE022780423012A54D1E778A2783F021743E2195679B44616796F
:400600000196FE1D8E427FD89279172A45D1FB189BB2002B08D09CA98D4ECA1892191278013B801880B2F3E7019B614640420A0280B21A43082382422FD167E0342B00D040
:400640009DE0009901295AD1032F58D151A80021802200F0D8FC802551A948192639ED19FA1EFF39ADB200F0C5FC832D49D1A079637900021843774B36021B6880191A68BB
:4006800080B2D3099BB2560601D001339BB298427BD20127009700250A2300210120207068466A46437681766B4600200E32D8760B1D11809BB29CAFFE18654F013BF61954
:4006C00036789BB2801980B2002BF4D19CAE624F7318DE194042614F80B23070DE19000A30705F4807311B181720187089B2201C9623FFF7EBFD68E7009E012E1BD0042315
:40070000CBE70126009600250323C6E763782679181C31380A2801D90523BEE700F03AFCECFF1400FCFF8EFF3F00FCFF430054008EFF63008B00002FE1D1381CFFF70AFF35
:4007400043424341237173E000980128D7D1012FD5D1002ED3D13F4B1B681B68DA0BD2B2DB09DBB2002A01D080235B0023711B0A6371FF23A3710023E37104218EE7009BA6
:40078000012BBCD1022FBAD966E751A900F048FA002800D07DE701260096051C12E0009F012FACD110E7009E012EA8D19623EE195B009E42A8D851A948193A1C07A900F0C2
:4007C00019FCB5B2002368E7002F98D104AB254A191C41CA41C107AA41CB41C2012600963B1C08215AE70098012888D1032F86D1A37962791B021A43310251180192C901C8
:4008000000208022FFF729FE071C002E0ED10199FF290BD1311C0520FFF732FE311C3F1A0620FFF72DFEFFB23F1AFFB27F4227710023012132E70020FFF78CFE002802D179
:40084000094B80221A6000F0FDFA58E78CFDFFFFA7FDFFFFD4000020ACFDFFFFADFDFFFFAEFDFFFF48100000C000002038B50020FFF770FE0025A84200D00625124C00209C
:400880002368C0211A68C03AFFF7E7FD62681378181AC0B2984203D123681B68002B02D1002000F0CDFA094B19681A1C402901D0002D03D000231360FFF77EFE80221A6083
:4008C00000F0C0FA38BDC046D4000020C000002008B5054B8022196812060A431A600A2000F09AFA08BDC0460000064010B5054C2378002B03D100F0BFF801232370FFF7AD
:40090000E7FF10BD10010020094B0A4A1968136899420BD011684B1C4039481E814149420B400549C85C1360C0B200E000207047B0010020280100206C010020064B074ACB
:400940001B6811688B4202D31068181A02E012684133981A7047C046B0010020280100200C4A0D4B002130B5106811601D68802464022C431C601D68084C2C401C60084BAB
:400980001C68084B1C60084B19700849084B1960106030BDC80F064004030640FFFFFEFF28010020B0010020AD010020ED0F0000C00F0640124910B50A68531C3F3A541E44
:4009C000A241524213400F4A1468A342FBD00C681268944208D10C4A14680F222240082A02D00A4B18600AE0094C02222260094CC0B2E0540B60084B19680A431A6010BD22
:400A000024010020200100200802064040020640800F06402C010020880F064038B5041C4518AC4204D02078FFF7C4FF0134F8E738BD00000B4A0023116810B513600A4B55
:400A400080201C684002204318601C68074820401860074B1868074B186002239943116010BDC046880F064004020640FFFFFEFF20010020240100201D4A1E4B10B51A60F0
:400A80001D4B00241C601D4B01221A601C491D4B07200B601C4908601C490A200C601C490A601C4A13601C4B1C6000F0BFF90A20032100F091F919490A2000F081F9184BAE
:400AC00004221C60174B1C60174B1C60174B1C60174B1A60174B1C60174B1C60174B1C60174B1C70174B1C60174B1C6010BDC0460B00000200000640400006404800064060
:400B0000000306400700008004030640100306404400064000020640040206409D0E0000880E0640C80E0640480F0640080F0640C80F0640880F0640B00100202801002070
:400B4000AD01002024010020200100200E4B8422D2041A601968802252020A431A600B490B4A0A60196819600A4BC32189001960094B00211960094B1C211960084B1A6087
:400B8000084A094B1A60704700010540080105401027000024010540380105402801054014010540881300000C01054008B500F02DF8044B01211A680A431A6000F02AF858
:400BC00008BDC0460000054010B5054C2378002B03D1FFF7BBFF01232370FFF7E7FF10BD18010020024B18680006C00F7047C04604000440000000000230800804D0C046B1
:400C00000138FDD1C046C046C0467047EFF3108072B6704780F310887047C046C046C046F0B50024CBB0069404900794FF2800D9A4E0A14200D1A1E008AD8022281C00F06E
:400C4000D9F9231C211C221C029498002858002802D01218014302930133202BF5D1002A05D1002900D08EE00191039102E0002001900390484F7F2328AE291C80222AA87D
:400C80002897464C736000F0B5F9454A454B266013602168090F0A2903D022680F23134000E000230693069F002F69D1FFF7AEFF3D4A3E4B116807971960069B0590002B56
:400CC00014D13B4A04982892289A01040A43289228AA22603249374A0A602268120F0A2A03D02E4B1A680F2313400693069F002F38D1019A002A35D0391C8022281C00F00F
:400D000082F90298039A08A983005A50224B2AA8289380227F23736000F06CF9214820492660086023681B0F0A2B03D01B4B1F680F231F400697069B002B13D11E4A049871
:400D40002892289A01040A43289215491B4A26600A602268120F0A2A03D0104B1A680F2313400693079B002B04D1104A0E481268026007930598FFF74DFF01E00423069343
:400D800006984BB0F0BD02998B00E85801210390EA5001916EE7C046B6D7000008000040040000400400008008010B401C010020B6D8000005000080B6D900000600008055
:400DC0001F2800D901BE034A80008318186819607047C0464000002038B5041C0D1E032D00D901BE1F2C00D901BEFFF70FFFA308084A9B009B18032214409440196806345C
:400E0000A2409143A5400C1C2C431C60FFF702FF38BDC04600E400E01F23184001238340181C014B1860704700E100E01F23184001238340181C014B1860704780E100E0EC
:400E400001BE7047034B04491A6892B20A431A607047C0460CED00E00400FA0510B5041C8022074B1202944205D91868FFF7C4FE044BE418F4E758686043FFF7BDFE10BD5B
:400E8000DC0000200080FFFF08B5034B1B7A5843FFF7B2FE08BDC046DC000020274B10B51B68002B00D09847254B1B685A071DD5244B1B681A0716D0234B244A1868116868
:400EC0004B1C40394C1EA14149420B40204909688B4203D11F4B20221A70E9E71E49C0B2C8541360E4E71D4B04221A601C4B1B689A0721D51B4B1A680F231340082B18D02B
:400F0000194B1A4A1968136899420DD011684B1C3F39481E814149420B401549C85C1549C0B208601360E5E7134B02211A688A431A60124B02221A6010BDC0461401002099
:400F4000CC0F06400803064040030640B001002028010020AD0100206C010020C00F06408C0F06400802064024010020200100202C01002040020640880F0640800F0640AE
:400F800002B4714649084900095C49008E4402BC7047C04603B47146490840004900095E49008E4403BC704770B50E4B0E4D0024ED1AAD101E1CAC4204D0A300F358984765
:400FC0000134F8E700F044F8084B094D0024ED1AAD101E1CAC4204D0A300F35898470134F8E770BD5C1000005C1000005C1000006410000010B50023934203D0CC5CC4548E
:401000000133F9E710BD031C8218934202D019700133FAE770470000A8100000EE0000000000000001330F4003410F4004430F4002600F40E61062048E04D84018808C40AD
:40104000C608E608020111019311C804111E0101F8B5C046F8BC08BC9E4670474D02000005040000F8B5C046F8BC08BC9E4670472502000088100000D0000020200000004B
:40108000C80000000000000000000000181000001C1000000000E02EC05D00001800000000366E01000000000000000000000000000000000000000000000000000000002C
:4010C00000000000000000000000000000000000000000000000000000000000000000000000000000000000000000000000000000000000000000000000000000000000F0
:401100000010002011110000351500003515000010B5024B83F3088800F014FA0010002070B5154C23688025ED022B432360302000F0A4FE114A124B1A601022114B1A60D1
:401140002023114A1360114A136082221206104B1A6025600F4A104B1A60104A104B1A601049092000F030FE092000F021FE00220D4B1A6070BDC04600010B40060000804C
:4011800004010B401C020240200202402402024008010B402F000080000002406A000080400002408D2000000C020B4010B572B60122304B1A7000240FE02F4862001319CF
:4011C00059000B00411889881A5AC31858880004104300F07BF90134E4B2012CEDD9264801000C31483000F04DF9C0229204234B1A600023224A1360224A136099231B0403
:40120000214A1360214A13602149224A1160224A13600223214A1360214A136021490B783C22934314221343DBB20B701E4A117816230B43DBB2137080221C4B1A601C4AC5
:401240001C4B1A60802212021B4B1A6054221B4B1A60C02252031A4B1A601A4B14221A600723194A1360194A1360FFF759FF00F023F910BD1C700F40A8260000040001408B
:401280000C0001400803044000500F4010500F400000108918500F4020500F402000004000800F4001700F4000700F4000000440B66D5B00080004400C00044000010440E4
:4012C0000801044018010440000204401802044010B5064C2378002B07D1054B002B02D0044800E000BF0123237010BD500100200000000090260000084B10B5002B03D0F2
:401300000749084800E000BF07480368002B00D110BD064B002BFBD09847F9E7000000005401002090260000C800002000000000F0B585B000F02CFB002000F033FB06009D
:40134000012000F02FFB0500022000F02BFB0190144F2A00390002A801F04AF9039C0299300000F0CFFF0500230073431800390000F0C8FF2D1A019CFF2C00D9FF24300077
:4013800000F042F9280000F047F9200000F002FA0021012000F05CFC2004000C00F076FC05B0F0BDFF07000010B500F0E7FA012000F026FF10BDC04610B500F08FF9012815
:4013C00002D0022809D011E000F028FB002000F015FB012000F088F90EE000F01FFB012000F00CFB022000F07FF905E0012000F07BF9022000F078F910BDC04610B5094BEF
:401400001B78002B05D000F0E9F80022054B1A7004E000F053F90122024B1A7000F088FE10BDC0466C01002010B562B600F0B8FC0F4800F045FF0F4800F0A4FC0E4800F023
:4014400071FC0E4800F00AFF00F0F2FB00F012F900F0C6FE00F08EF900F0C0FA00F07EFA0021002000F0F4FB054800F087FBFEE731130000FD130000B9130000A9130000FB
:4014800094260000F0B50025002711E0BB00C658F3B2FF22964308E06A008A181478A419527822700135013BDBB2002BF4D10137062FEBD9F0BDC0460723024A1360024A77
:4014C0001360704700031A4040031A4010B50A00002101F0D5F810BD002802D0012807D00CE0074A1368C021C9020B43136005E0034A1368C021C9000B4313607047C04659
:4015000004000140002802D0012806D00AE0064A1168064B0B40136004E0034A1168044B0B4013607047C04604000140FFFFF9FFFFF9FFFF10B501F077F803680C2B00D16E
:40154000FEE7FEE770B50F4E0F4D13E029686B68AC68002202E001C901C30432A242FAD1E868002202E0002102C304328242FAD11035013E002EE9D101F05CF8FFF754FFE8
:40158000FEE7C046010000007027000010B500230AE0032B03D89A000C49505800E00C4899000C4A885001332F2BF2D9FFF7FEFD094B1B68002B02D10022074B1A6080228C
:4015C000D205116801230B43136010BD001100003515000000000020C000002010B500F089FE044A136801218B43136000F086FE10BDC046000005400004000C014B1860C6
:401600007047C046080105400004000C014B18607047C046140105400004000C014B18607047C0460C01054070B504000D0000F061FEAC40024B1C6000F060FE70BDC04616
:401640000800054010B500F055FE064A116801230B43136000F052FE18210120FFF7E4FF10BDC04600000540014B18607047C0463801054010B50E4C8023DB04236023682E
:4016800023600020FFF7B8FF236823600C22094B1A600320FFF7E8FF3122074B1A60FA20C000FFF7B1FFC8208000FFF7B5FF10BD00010540240105402801054010B5064B1E
:4016C0001B78002B04D1FFF7D5FF0122024B1A70FFF7B8FF10BDC0466D010020014B18687047C04630010540014B18607047C0463001054010B500F0FDFD0E4C23680F22CA
:40170000934319000C4B1B7813400B4323600B4A136813600A4B1C680A492140196011689A24E400214311601A681A6000F0E6FD10BDC04600FF084060F1FF0F08000840DB
:4017400004000840FFFFFEFF10B500F0D3FD074A1368C02189000B431360054A1368802109060B43136000F0C9FD10BD080008400400084010B5064B1B68002B04D1FFF7BD
:40178000B9FF0122024B1A60FFF7DEFF10BDC0467001002010B5040000F0ACFD044A1368FF218B431C43146000F0A8FD10BDC0460800084010B503210E2000F017FB424908
:4017C0000E2000F001FB0722404B1A60404B1B68002B01DA3F4900E03F49404A13680B4313603F4A3F4B1A603F4A404B1A6000233F4A13603F4A40490A6040490A60404AA4
:40180000116880204002014311603E490A6802430A603D4A13603D4A136001333C4A136002213C4A11603C4908683C4A024013430B60002444E03A49A2005058DC239B0187
:4018400003400919097B0B4336498C4662441360C30707D52C490A680123A3401B041B0C13430B60A3002E4A9B589B0707D527490A680123A3401B041B0C13430B60A3000D
:40188000274A9B589A0502D58020C00001E080204001DB0504D463000021234A995203E04208630020495A5220494843204B9C46604400F0B1FD00B2A2001E4BD05001345E
:4018C000022CB8D910BDC046D119000020001A4080031A40702010137020001300001A408500008004001A400000FF0718001A401C001A400400040010001A4014001A4034
:4019000000031A4040031A4028021A4038021A4018021A40000F1A4030001A40FFFFFFDF0C27000080001A40A801002010270000881300009C01002010B5074B1B68002B28
:4019400008DB054A1368802109060B4313600A2000F08AFA10BDC04600001A4010B5064B1B78002B04D1FFF725FF0122024B1A70FFF7E2FF10BDC04674010020034A1368BA
:40198000802149020B4313607047C04604001A40024A1168024B0B401360704704001A40FFFFFEFF10B50400022802D9002000F009FA022C07D8A400044B9C46644420688C
:4019C0000004000C00E0002000B210BD80011A40014B1A681A60704710021A4010B5002404E02000FFF78EFD0134E4B2012CF8D9FF22014B1A7010BDCC00002010B5040062
:401A0000054B1878FF2801D0FFF77CFD2000FFF763FD014B1C7010BDCC00002010B5054B1878FF2804D0FFF76DFDFF22014B1A7010BDC046CC00002010B50B4C2268602379
:401A40009A4322602268513B9A432260226810230343D8B210432060012000F005FA236810229343236010BD0000044070B505000E4C22682023134323602368402293430E
:401A80002360002000F0F0F923680F2293432360226810232B43D8B210432060012000F0E3F9236810229343236070BD00000440F8B5274A13687F218B43136025490B683E
:401AC0001B0B1B03244803430B60136820218B431360116840230B431360CA277F00002000F0C2F91A4C2368102633432360012000F0BAF9194B1D682368B34323600020BF
:401B000000F0B2F908231D40236833432360012000F0AAF92368B3432360002D02D10A2000F0A2F9013F002D01D0002FD7D1084B1A6840218A431A601A683F318A431A60C6
:401B4000044A13681B0B1B0305490B431360F8BD00000440080004404902000004000440B60D000010B50400FFF7A2FF2009FFF77DFF0F202040FFF779FF10BD70B50500BF
:401B80000078012404E0FFF7EDFF285D0134E4B20028F8D170BDC04610B50400FFF788FF2009FFF749FF0F202040FFF745FF10BD10B5282000F040F90320FFF73DFF05205B
:401BC00000F03AF90320FFF737FF0F2000F034F90320FFF731FF012000F02EF90220FFF72BFF052000F028F90620FFF7D5FF0E20FFF7D2FF2C20FFF7CFFF0820FFF7CCFF50
:401C00000120FFF7C9FF0C20FFF7C6FF0320FFF7C3FF052000F010F910BDC04610B50C20FFF7BAFF0122014B1A7010BD7501002010B5064B5B78002B04D1FFF7B9FF01225C
:401C4000024B5A70FFF7EAFF10BDC0467501002010B501280BD0002804D002280CD003280FD012E08039C8B2FFF796FF0DE04039C8B2FFF791FF08E06C39C8B2FFF78CFF92
:401C800003E02C39C8B2FFF787FF10BD30B585B00400002201AB9A7209250EE00A21200000F0B6FBC9B2303101AB59550A21200000F028FB0400013DEDB2092CEED80A217E
:401CC000200000F0A5FBC9B2303101A841554019FFF754FF05B030BD8023014AD05070470000002010B5040000F004FB044A1368C0218B43A4011C43146000F0FFFA10BD92
:401D000010E400E080225202014B1A607047C04600E100E080225202014B1A607047C04680E100E010B50400FFF7F4FF2000FFF7D3FF0120FFF7D6FFFFF7E4FF10BDC046A9
:401D4000014B18647047C0460000002010B5040000F0D0FA044A1368C0218B43A4011C43146000F0CBFA10BD00E400E00122014B1A60704700E100E00122014B1A60704704
:401D800080E100E010B50400FFF7F6FF2000FFF7D7FF0020FFF7DAFFFFF7E8FF10BDC0468022D201014B1A607047C04680E100E01F2318401E3B8340014A13607047C04639
:401DC00000E100E001BE704770B504000D001F2802D90020FFF7F6FF1034A40080239B059C4664442068256070BDC04670B504000E00032902D90020FFF7E4FF1F2C02D9F7
:401E00000020FFF7DFFF03252540ED00063500F071FAA408A400074B9C46644421680323AB4099430B003100A9401943216000F065FA70BD00E400E010B5040006E0084BB8
:401E4000586800F04DFA074B9C46644480231B029C42F4D8024B9868604300F041FA10BDD00000200080FFFF10B5034B1B7B584300F036FA10BDC046D0000020F0B5574666
:401E80004E46C0B483B0040000F034FA0190E71E2D2F74D83F4B1B78DBB29C4208D83E4B1B78DBB29A463D4B1B78DBB2994631E03B4B1B78DBB29C4208D83A4B1B78DBB2F5
:401EC0009A46394B1B78DBB2994623E0374B1B78DBB29C4208D8364B1B78DBB29A46354B1B78DBB2994615E0334B1B78DBB29C4208D8324B1B78DBB29A46314B1B78DBB2B2
:401F0000994607E02F4B1B78DBB29A462E4B1B78DBB299462D4BDE5D2F2E09D92A2C07D919222B4B1A60052000F0DAF9192503E0274B1D683F231D40B54206D9234BDA5D5C
:401F4000234B1A60052000F0CBF91F4B9C4664442378DBB21F4A13601F4B52461A601F4B4A461A600520FFF77FFFB5420AD2174BDA5D174B1A60052000F0B2F902E0002015
:401F8000FFF720FF019800F0B9F903B00CBC91469A46F0BDC0F1FF0FC1F1FF0FC2F1FF0FC3F1FF0FC4F1FF0FC5F1FF0FC6F1FF0FC7F1FF0FC8F1FF0FC9F1FF0FCAF1FF0F86
:401FC000CBF1FF0FCCF1FF0FCDF1FF0F1C2700002CFF0B4028FF0B401CFF0B4020FF0B40034B1868C0231B02184000D00120704700010B4010B500F07DF9044A1368C02196
:4020000009020B43136000F079F910BD00010B4010B500F06FF908490A68084B1A408024E40122430A600A6813408022120213430B6000F063F910BD00010B40FF3FFFFF97
:4020400070B5050000F056F90400FFF7C9FF002803D0FFF7DDFF012100E0002108482840084A1568084B2B40184310601368012901D1FFF7BFFF200000F040F970BDC0468E
:402080000404040010020B40FBFBFBFF10B5244B1B685B0715D5234B1B685B070ED5224BD969042001401F4C22688A432260DA698243DA611B69002B00D098470420FFF77B
:4020C000BFFF174B1B685B0518D5164B1B685B0510D5154BD9698022D2001140114802688A430260D969114A0A40DA615B69002B00D098478020C000FFF7A2FF084B1B68E1
:402100005B030CD5074B1B685B0304D5064B9B69002B00D098478020C002FFF791FF10BD10020B40E400002078010020FFFBFFFF034B1868C0B27F2290431860C0097047D2
:40214000100004400004000C014B18607047C046480105400004000C014B18607047C0465401054070B504000D0000F0C3F8AC40024B1C6000F0C2F870BDC0460800054001
:4021800010B500F0B7F8064A116802230B43136000F0B4F818210220FFF7E4FF10BDC04600000540014B18607047C0467801054010B580229204074B1A600C22064B1A6023
:4021C0000120FFF7EFFF0548FFF7C4FF0020FFF7B9FF10BD4001054064010540C8AF000010B5064B1B78002B04D1FFF7E1FF0122024B1A70FFF7C4FF10BDC04698010020D4
:40220000014B18607047C046700105408423014AD05070470000002010B5040000F06AF8044A1168044B0B40A4031C43146000F065F810BD10E400E0FF3FFFFF8022920228
:40224000014B1A607047C04600E100E080229202014B1A607047C04680E100E010B50400FFF7F4FF2000FFF7D1FF0320FFF7D4FFFFF7E4FF10BDC046014B58647047C0462B
:402280000000002010B5040000F034F8044A1168044B0B40A4031C43146000F02FF810BD00E400E0FF3FFFFF0222014B1A60704700E100E00222014B1A60704780E100E016
:4022C00010B50400FFF7F6FF2000FFF7D5FF0220FFF7D8FFFFF7E8FF10BDC046000000000230800804D0C0460138FDD1C046C046C0467047EFF3108072B6704780F31088E1
:402300007047C046002243088B4274D303098B425FD3030A8B4244D3030B8B4228D3030C8B420DD3FF22090212BA030C8B4202D31212090265D0030B8B4219D300E0090A0A
:40234000C30B8B4201D3CB03C01A5241830B8B4201D38B03C01A5241430B8B4201D34B03C01A5241030B8B4201D30B03C01A5241C30A8B4201D3CB02C01A5241830A8B42B3
:4023800001D38B02C01A5241430A8B4201D34B02C01A5241030A8B4201D30B02C01A5241CDD2C3098B4201D3CB01C01A524183098B4201D38B01C01A524143098B4201D327
:4023C0004B01C01A524103098B4201D30B01C01A5241C3088B4201D3CB00C01A524183088B4201D38B00C01A524143088B4201D34B00C01A5241411A00D201465241104635
:402400007047FFE701B5002000F0F0F802BDC0460029F7D076E7704703460B437FD4002243088B4274D303098B425FD3030A8B4244D3030B8B4228D3030C8B420DD3FF226E
:40244000090212BA030C8B4202D31212090265D0030B8B4219D300E0090AC30B8B4201D3CB03C01A5241830B8B4201D38B03C01A5241430B8B4201D34B03C01A5241030B2A
:402480008B4201D30B03C01A5241C30A8B4201D3CB02C01A5241830A8B4201D38B02C01A5241430A8B4201D34B02C01A5241030A8B4201D30B02C01A5241CDD2C3098B4228
:4024C00001D3CB01C01A524183098B4201D38B01C01A524143098B4201D34B01C01A524103098B4201D30B01C01A5241C3088B4201D3CB00C01A524183088B4201D38B0082
:40250000C01A524143088B4201D34B00C01A5241411A00D201465241104670475DE0CA0F00D04942031000D34042534000229C4603098B422DD3030A8B4212D3FC228901C6
:4025400012BA030A8B420CD3890192118B4208D3890192118B4204D389013AD0921100E08909C3098B4201D3CB01C01A524183098B4201D38B01C01A524143098B4201D3CE
:402580004B01C01A524103098B4201D30B01C01A5241C3088B4201D3CB00C01A524183088B4201D38B00C01A5241D9D243088B4201D34B00C01A5241411A00D20146634608
:4025C00052415B10104601D34042002B00D54942704763465B1000D3404201B5002000F005F802BD0029F8D016E770477047C046F8B50F000600110038001500FFF70CFF81
:40260000290004003800FFF7EDFF002F04DB002906DA0134491B03E0002901DD013C4919300034607160F8BD014B18687047C046480100200E4B70B500251E000D4CE41AC6
:40264000A410A54204D0AB00F35898470135F8E700F07CF8084B00251E00084CE41AA410A54204D0AB00F35898470135F8E770BD582700005827000058270000602700002B
:4026800003008218934202D019700133FAE7704700000000456C656374726F657374696D756C61646F72000000300F40000400400F40000438203E1058045F0118048004F2
:4026C000E004E2012F206F208308CA80DA80E22056405F086001664080019B08D440D6C0E28077088308DC021A108210C608000004300F4003310F4001330F4006400F4040
:4027000009410F4003420F4003430F4000000000000000000002000002010000030405060708090A0B0C0E0F101112131415161718191B1C1D1E1F202122232526272829C3
:402740002A2B2E2F3031323334354300F8B5C046F8BC08BC9E467047F91200008D150000F8B5C046F8BC08BC9E467047D112000080270000C80000208800000060000000A2
:4027800000000000FF000000010000000000C05D80BB000030000000006CDC020404040000000000000000000000000000000000000000000000000000000000000000003B
:4027C0004A27000000000000000000000000000000000000000000000000000000000000000000000000000000000000000000000000000000000000000000000000000068
:40280000E800002000000000000000000000000000000000000000000000000000000000000000000000000000000000000000000000000000000000000000000000000090
:402840000000000000000000000000000000000000000000000000000000000000000000000000000000000000000000000000000000000000000000000000000000000058
:402880000000000000000000000000000000000000000000000000000000000000000000000000000000000000000000000000000000000000000000000000000000000018
:4028C00000000000000000000000000000000000000000000000000000000000000000000000000000000000000000000000000000000000000000000000000000000000D8
:402900000000000000000000000000000000000000000000000000000000000000000000000000000000000000000000000000000000000000000000000000000000000097
:407FC000CA111100002100000080170000000000000001000000000000000000000000000000000000000000000000000000000000000000000000000000000000000000DC
:0200000490303A
:02000000F46B9F
:0200000490402A
:20000000FFFFFFFF00000000000000000000000000000000000000000000000000000000E4
:0200000490501A
:0C000000000204C81193110004D505FE95
:0200000490600A
:0100000001FE
:00000001FF