:400000000010002011000000B5030000B503000008B500F081FA00F0CFF90000F7B572B680220021D200554800F0EDFF802200215348D20000F0E7FF0023191C514C1859E1
:400040001034C2B20192071CFF2297434A00A4180022019ED5B2AE4209D05500665D6519B446BC446D78664635700132F1E7C0B204330918102BE1D1434BC02292041A60F8
:40008000424B99221A60424A00231360414A80211160414AC9031160404A40211160404AC021490311603F4A312113603E4B02221A603E4B802019603D4B3E491A60992317
:4000C0001B040B603C49000608603C493C200B603B4B8021890519603A493B4B19603B4B19780A431A703A4A117881431420014311701A7816210A431A70364A8023116893
:40010000DB020B431360344B141C1878334BC0B21978334BC9B21A78172A05D9314A58789978033B9342F6D12F4B192218602F4B052019602E4B1A6000F05EFD2D4B052061
:400140001A782D4BD2B21A6000F09EFE22682B4B134023602A4A2B4B1A602B4B10221A602A4B20221A602A4B802212061A60294A294B1A60294A2A4B1A60F7BD00300F40BF
:4001800000400F402410000004000140100001400C000140000004400800044000010440080104400803044000040440080404401804044000500F4004500F4010500F403F
:4001C00018500F40100001002001054000700F4001700F4000010B40CCF1FF0FCDF1FF0FC9F1FF0FBDF1FF0F1CFF0B4020FF0B402CFF0B40E5F1FF0F28FF0B40FFFFFBFF57
:400200000600008004010B40080202402002024008010B401000008000000240AF0400804000024010B5064C2378002B07D1054B002B02D0044800E000BF0123237010BDEC
:40024000F0000020000000002010000008B5084B002B03D00748084900E000BF07480368002B03D0064B002B00D0984708BDC0460000000020100000F4000020D00000200F
:400280000000000010B562B600F0ACFC00280ED16524012000F0E2FD00F0A4FC002806D1013CE4B2002CF4D1034B40221A6000F08BFC00F0DBFAFEE7C000002008B500F01E
:4002C00015FB00F04DFB00F0B5FB08BD70B5054B0D1C161C0024C9B21C8000F09FFB3580201C70BD0C010020F0B50A275F4387B003900591151C00262D4CBE4219DA00F0E6
:400300001DFB80B220802388002B0CD00220268800F0A4FD00F012FB80B220802388B6B2B342F3D807E00120013600F097FDB6B2E2E7052600E0002600272F802388002B4D
:4003400033D023889BB2019301992B885A18059992B22A808A4221D2019ABB189BB2029302998F4209D07B1C9BB20493039BDF1900F0CAFA3870049FF2E772B62388019AF8
:400380009B1A9BB2238062B6039A5318013B1B78172B08D0052000F061FD04E02B8000F0DFFA052601E0029FC8E7301C07B0F0BD0C010020FEE7000070B51048104B013895
:4003C000421C15D01E685C689D680022A118AA4203D0B158A1500432F8E7DA680D1C4C1B944202D0002410C1F9E710330138E7E700F0DAFDFFF746FFFEE7C046010000003B
:400400007410000008B500239A00032B02D80D49895800E00C490D4801338150302BF3D1FFF7FCFD0A4B00221A600A4B1A68002A00D11A608023DB051A6801210A431A60B7
:4004400008BDC04600000000B503000000000020C8000020C0000020004770B5051C0E1C141C002802D0002000F0EAFC0020002C05D0013CAA19125D8318D8B2F7E770BD7A
:40048000013808B509282AD8C901494200F078FD0507090B0D0F1614181B154B08E0154B12E0154B0DE0154B0EE0154B00E0154BC9180878C0B21AE0134B02E0134B00E0A0
:4004C000134BC9180FE0134BC9180B7848788A780002120410431843CB781B0606E0002000F0AEFC00210B7848780002184308BDC07F0000C17F0000C57F0000C97F0000EF
:40050000D07F0000D17F0000D67F0000D27F0000D47F0000D87F00000C4B10B51A6810231A400B4B00D11A601A68802A0DD100240220211C1C60FFF7A3FFA04205D0211C6B
:400540000220FFF79DFFFFF787FF10BD00030B40C0000020F8B5051C291C0320FFF790FF291C041C0420FFF78BFF671CFF013F18291C0320FFF784FF00240130C001261C79
:40058000B84209D203785A1ED2B2FD2A00D801261C19E4B20130F3E70120291CFFF770FF6442E4B20623844203D17242564176423340181CF8BD0000F0B5A44CA544FFF756
:4005C0007DFE62B600260096002506AC03AE9621201C4900321CFF23FFF786FE0028F4D13188062900D88AE022780423012A54D1E778A2783F021743E2195679B44616796F
:400600000196FE1D8E427FD89279172A45D1FB189BB2002B08D09CA98D4ECA1892191278013B801880B2F3E7019B614640420A0280B21A43082382422FD167E0342B00D040
:400640009DE0009901295AD1032F58D151A80021802200F0D8FC802551A948192639ED19FA1EFF39ADB200F0C5FC832D49D1A079637900021843774B36021B6880191A68BB
:4006800080B2D3099BB2560601D001339BB298427BD20127009700250A2300210120207068466A46437681766B4600200E32D8760B1D11809BB29CAFFE18654F013BF61954
:4006C00036789BB2801980B2002BF4D19CAE624F7318DE194042614F80B23070DE19000A30705F4807311B181720187089B2201C9623FFF7EBFD68E7009E012E1BD0042315
:40070000CBE70126009600250323C6E763782679181C31380A2801D90523BEE700F03AFCECFF1400FCFF8EFF3F00FCFF430054008EFF63008B00002FE1D1381CFFF70AFF35
:4007400043424341237173E000980128D7D1012FD5D1002ED3D13F4B1B681B68DA0BD2B2DB09DBB2002A01D080235B0023711B0A6371FF23A3710023E37104218EE7009BA6
:40078000012BBCD1022FBAD966E751A900F048FA002800D07DE701260096051C12E0009F012FACD110E7009E012EA8D19623EE195B009E42A8D851A948193A1C07A900F0C2
:4007C00019FCB5B2002368E7002F98D104AB254A191C41CA41C107AA41CB41C2012600963B1C08215AE70098012888D1032F86D1A37962791B021A43310251180192C901C8
:4008000000208022FFF729FE071C002E0ED10199FF290BD1311C0520FFF732FE311C3F1A0620FFF72DFEFFB23F1AFFB27F4227710023012132E70020FFF78CFE002802D179
:40084000094B80221A6000F0FDFA58E78CFDFFFFA7FDFFFFD4000020ACFDFFFFADFDFFFFAEFDFFFF48100000C000002038B50020FFF770FE0025A84200D00625124C00209C
:400880002368C0211A68C03AFFF7E7FD62681378181AC0B2984203D123681B68002B02D1002000F0CDFA094B19681A1C402901D0002D03D000231360FFF77EFE80221A6083
:4008C00000F0C0FA38BDC046D4000020C000002008B5054B8022196812060A431A600A2000F09AFA08BDC0460000064010B5054C2378002B03D100F0BFF801232370FFF7AD
:40090000E7FF10BD10010020094B0A4A1968136899420BD011684B1C4039481E814149420B400549C85C1360C0B200E000207047B0010020280100206C010020064B074ACB
:400940001B6811688B4202D31068181A02E012684133981A7047C046B0010020280100200C4A0D4B002130B5106811601D68802464022C431C601D68084C2C401C60084BAB
:400980001C68084B1C60084B19700849084B1960106030BDC80F064004030640FFFFFEFF28010020B0010020AD010020ED0F0000C00F0640124910B50A68531C3F3A541E44
:4009C000A241524213400F4A1468A342FBD00C681268944208D10C4A14680F222240082A02D00A4B18600AE0094C02222260094CC0B2E0540B60084B19680A431A6010BD22
:400A000024010020200100200802064040020640800F06402C010020880F064038B5041C4518AC4204D02078FFF7C4FF0134F8E738BD00000B4A0023116810B513600A4B55
:400A400080201C684002204318601C68074820401860074B1868074B186002239943116010BDC046880F064004020640FFFFFEFF20010020240100201D4A1E4B10B51A60F0
:400A80001D4B00241C601D4B01221A601C491D4B07200B601C4908601C490A200C601C490A601C4A13601C4B1C6000F0BFF90A20032100F091F919490A2000F081F9184BAE
:400AC00004221C60174B1C60174B1C60174B1C60174B1A60174B1C60174B1C60174B1C60174B1C70174B1C60174B1C6010BDC0460B00000200000640400006404800064060
:400B0000000306400700008004030640100306404400064000020640040206409D0E0000880E0640C80E0640480F0640080F0640C80F0640880F0640B00100202801002070
:400B4000AD01002024010020200100200E4B8422D2041A601968802252020A431A600B490B4A0A60196819600A4BC32189001960094B00211960094B1C211960084B1A6087
:400B8000084A094B1A60704700010540080105401027000024010540380105402801054014010540881300000C01054008B500F02DF8044B01211A680A431A6000F02AF858
:400BC00008BDC0460000054010B5054C2378002B03D1FFF7BBFF01232370FFF7E7FF10BD18010020024B18680006C00F7047C04604000440000000000230800804D0C046B1
:400C00000138FDD1C046C046C0467047EFF3108072B6704780F310887047C046C046C046F0B50024CBB0069404900794FF2800D9A4E0A14200D1A1E008AD8022281C00F06E
:400C4000D9F9231C211C221C029498002858002802D01218014302930133202BF5D1002A05D1002900D08EE00191039102E0002001900390484F7F2328AE291C80222AA87D
:400C80002897464C736000F0B5F9454A454B266013602168090F0A2903D022680F23134000E000230693069F002F69D1FFF7AEFF3D4A3E4B116807971960069B0590002B56
:400CC00014D13B4A04982892289A01040A43289228AA22603249374A0A602268120F0A2A03D02E4B1A680F2313400693069F002F38D1019A002A35D0391C8022281C00F00F
:400D000082F90298039A08A983005A50224B2AA8289380227F23736000F06CF9214820492660086023681B0F0A2B03D01B4B1F680F231F400697069B002B13D11E4A049871
:400D40002892289A01040A43289215491B4A26600A602268120F0A2A03D0104B1A680F2313400693079B002B04D1104A0E481268026007930598FFF74DFF01E00423069343
:400D800006984BB0F0BD02998B00E85801210390EA5001916EE7C046B6D7000008000040040000400400008008010B401C010020B6D8000005000080B6D900000600008055
:400DC0001F2800D901BE034A80008318186819607047C0464000002038B5041C0D1E032D00D901BE1F2C00D901BEFFF70FFFA308084A9B009B18032214409440196806345C
:400E0000A2409143A5400C1C2C431C60FFF702FF38BDC04600E400E01F23184001238340181C014B1860704700E100E01F23184001238340181C014B1860704780E100E0EC
:400E400001BE7047034B04491A6892B20A431A607047C0460CED00E00400FA0510B5041C8022074B1202944205D91868FFF7C4FE044BE418F4E758686043FFF7BDFE10BD5B
:400E8000DC0000200080FFFF08B5034B1B7A5843FFF7B2FE08BDC046DC000020274B10B51B68002B00D09847254B1B685A071DD5244B1B681A0716D0234B244A1868116868
:400EC0004B1C40394C1EA14149420B40204909688B4203D11F4B20221A70E9E71E49C0B2C8541360E4E71D4B04221A601C4B1B689A0721D51B4B1A680F231340082B18D02B
:400F0000194B1A4A1968136899420DD011684B1C3F39481E814149420B401549C85C1549C0B208601360E5E7134B02211A688A431A60124B02221A6010BDC0461401002099
:400F4000CC0F06400803064040030640B001002028010020AD0100206C010020C00F06408C0F06400802064024010020200100202C01002040020640880F0640800F0640AE
:400F800002B4714649084900095C49008E4402BC7047C04603B47146490840004900095E49008E4403BC704770B50E4B0E4D0024ED1AAD101E1CAC4204D0A300F358984765
:400FC0000134F8E700F044F8084B094D0024ED1AAD101E1CAC4204D0A300F35898470134F8E770BD5C1000005C1000005C1000006410000010B50023934203D0CC5CC4548E
:401000000133F9E710BD031C8218934202D019700133FAE770470000A8100000EE0000000000000001330F4003410F4004430F4002600F40E61062048E04D84018808C40AD
:40104000C608E608020111019311C804111E0101F8B5C046F8BC08BC9E4670474D02000005040000F8B5C046F8BC08BC9E4670472502000088100000D0000020200000004B
:40108000C80000000000000000000000181000001C1000000000E02EC05D00001800000000366E01000000000000000000000000000000000000000000000000000000002C
:4010C00000000000000000000000000000000000000000000000000000000000000000000000000000000000000000000000000000000000000000000000000000000000F0
:401100000010002011110000911B0000911B000010B5024B83F3088800F05AFD0010002070B5114C23688025ED022B432360302001F014F90D4A0E4B1A6010220D4B1A6068
:40114000822212060C4B1A6025600C4A0C4B1A600C49092001F0CEF8092001F0BFF80022094B1A6070BDC04600010B400600008004010B402002024008010B406A00008049
:40118000000002406D2500000C020B4010B572B600240FE032486200131959000B00411889881A5AC31858880004104300F0A0FC0134E4B2012CEDD9294801000C314C3031
:4011C00000F07CFCC0229204264B1A60C0229205254B1A6099231B04244A1360244A13602449254A1160254A1360254A1360C0221206244B1A6024490B783C2293431422D6
:401200001343DBB20B70214A117816230B43DBB213701F4A1F4B1A60D7221F4B1A60B022D2031E4B1A60802212021D4B1A6017221C4B1A60163A1C4B1A6002231B4A136031
:401240001B4A136081211B4A11601B491B4A11601B4A1360FFF764FF00F060FC10BDC04644330000040001400C00014000500F4010500F400000103118500F4020500F4086
:4012800030500F4038500F4001700F4000700F40B66D1B000800044000010440080104400C0104401801044000020440080204400C020440000304400200C0000803044001
:4012C0000C03044010B5064C2378002B07D1054B002B02D0044800E000BF0123237010BD50010020000000005C320000084B10B5002B03D00749084800E000BF074803681C
:40130000002B00D110BD064B002BFBD09847F9E700000000540100205C320000C800002000000000F8B5D14B1B78042B03D10122CE4B1A7002E00133CC4A1370CB4B1B7876
:40134000022B36D0DAB2022A02D8012B07D086E1032B00D1FEE0042B00D145E17FE100F0DFFD00F0EDFE00F09FFC012000F05EFD0021002000F0B6FDBD4800F045FDBB4C1B
:4013800096236380002323710021012000F0AAFD6288B84CB849200001F032FB200000F033FD0521012000F09DFDB44800F02CFD55E1012000F03AFD0021002000F092FD70
:4013C000AF4800F021FDA94B1A790F2A00D98FE09300AC4AD3589F46A44BAB4ADA80AB4A1A81AB4A5A8183E0A04BAA4ADA80AA4A1A81AA4A5A817BE09C4BF5229200DA806A
:40140000A74A1A81A83A5A8172E0984BA54ADA80A54A1A81D022FF325A8169E0934BA34ADA80A34A1A81B822FF325A8160E08F4BA04ADA80F53A1A81A222FF325A8157E052
:401440008A4B9D4ADA80E23A1A818E22FF325A814EE0864B994ADA80994A1A817C22FF325A8145E0814B974ADA80C13A1A81AA3A5A813DE07D4B944ADA80944A1A815C22EA
:40148000FF325A8134E0794B914ADA80A63A1A814E22FF325A812BE0744B8E4ADA80E622FF321A81A53A5A8122E0704B8A4ADA80913A1A813622FF325A8119E06B4B874A5D
:4014C000DA80CC22FF321A81A13A5A8110E0674B834ADA80813A1A812022FF325A8107E0624B6B4ADA80B422FF321A819D3A5A815E4DEA887B4C7C4F2100380001F080FA4B
:401500002A897A4E2100300001F07AFA6A892100774801F075FA0021012000F0E3FC3E2000F080FC0121012000F0DCFC380000F06BFC0621012000F0D5FC300000F064FC49
:401540000B21012000F0CEFC694800F05DFC01232B7384E0454B1B7B022B07D0032B09D0012B0AD1414BDA88DA8106E03F4B1A89DA8102E03D4B5A89DA81012000F056FC4A
:401580000021002000F0AEFC5A4800F03DFC374C6288384D3849280001F032FA0421002000F0A0FC280000F02FFC0A21002000F099FC514800F028FCE289504C4949200083
:4015C00001F01EFA0C21002000F08CFC200000F01BFC0021012000F085FC494800F014FC1922484B1A603AE000F00AFD1F4CE189454801F0E5F805006088434B5843434987
:4016000001F0DEF80600280000F0A0FC300000F0A5FC00F085FD012000F008FC0021002000F060FC3A4800F0EFFB364D2B8823820321002000F056FC228A364C0E492000F2
:4016400001F0DEF9200000F0DFFB0021012000F049FC314800F0D8FB286800F081FD00F08FFD322000F058FEF8BDC0466C010020A0320000C0010020B0320000B432000030
:40168000B83200006032000057040000CA0200002B02000012040000AD02000009020000920200009E030000790200006D03000062020000410300001A030000F6020000AD
:4016C00025020000D5020000B7020000030200009A0200008102000069020000530200003F020000CC320000B8010020CC010020C4010020D0320000DC320000C80100206C
:40170000E0320000BC010020D0DD060040420F00F4320000D00100200833000010B5554B1B78022B32D0042B00D183E0012B00D09AE0504B1B79002B03D10F224D4B1A71A2
:4017400002E0013B4B4A13714A4B5B88962B04D896225200474B5A8002E00A3B454A53800021012000F0BEFB424B5A88424C4349200001F045F9200000F046FB05210120C3
:4017800000F0B0FB3E4800F03FFB6DE0394A137B013BDBB21373002B02D10322354B1A73344B1B7B022B19D0032B2DD0012B5BD10021012000F096FB3E2000F033FB0621ED
:4017C000012000F08FFB202000F02CFB0B21012000F088FB202000F025FB45E00021012000F080FB202000F01DFB0621012000F079FB3E2000F016FB0B21012000F072FB18
:40180000202000F00FFB2FE00021012000F06AFB202000F007FB0621012000F063FB202000F000FB0B21012000F05CFB3E2000F0F9FA19E0134A1368193B1360182B02D84B
:401840001922104B1A600B4C0E4B1B6823820321002000F047FB228A0B4C0849200001F0CFF8200000F0D0FA00F0CEFC322000F053FD10BD6C010020C0010020B03200009B
:40188000B4320000BC010020D001002010B5564B1B78022B33D0042B00D184E0012B00D09BE0514B1B790F2B03D100224E4B1A7102E001334C4A13714B4B5B882C22FF32C4
:4018C000934203D9953A484B5A8002E00A33464A53800021012000F005FB434B5A88434C4349200001F08CF8200000F08DFA0521012000F0F7FA3F4800F086FA6DE03A4AA0
:40190000137B0133DBB21373032B02D90122364B1A73354B1B7B022B19D0032B2DD0012B5BD10021012000F0DDFA3E2000F07AFA0621012000F0D6FA202000F073FA0B214D
:40194000012000F0CFFA202000F06CFA45E00021012000F0C7FA202000F064FA0621012000F0C0FA3E2000F05DFA0B21012000F0B9FA202000F056FA2FE00021012000F009
:40198000B1FA202000F04EFA0621012000F0AAFA202000F047FA0B21012000F0A3FA3E2000F040FA19E0144A136819331360FF2B02D9FA22104B1A600B4C0F4B1B682382F5
:4019C0000321002000F08EFA228A0C4C0849200001F016F8200000F017FA00F00DFC322000F09AFC10BDC0466C010020C0010020B0320000B4320000BC010020D0010020EE
:401A000010B500F00DFB0400104B186800F0A8FB012C02D0022C09D011E000F045F9012000F032F9012000F001FB0EE000F03CF9002000F029F9022000F0F8FA05E00120BA
:401A400000F0F4FA022000F0F1FA10BDBC01002010B562B6134800F0C1FB134800F030FC124800F0FDFB124800F00CFB00F02AFA00F0A2FA00F014FB002000F071FB00F0E8
:401A8000F3F800F0EFFD0021002000F02BFA094800F0BAF90021012000F024FA064800F0B3F9FEE7251300001D1700008D180000011A00001C33000030330000F0B500254E
:401AC000002711E0BB00C658F3B2FF22964308E06A008A181478A419527822700135013BDBB2002BF4D10137052FEBD9F0BDC04610B50A00002100F07BFF10BD064B1B68F0
:401B0000002803D080221206134301E05B005B08014A13607047C04680031A4010B582225200034B1A600120FFF7E8FF10BDC04680001040002802D0012807D00CE0074A48
:401B40001368C021C9020B43136005E0034A1368C021C9000B4313607047C04604000140002802D0012806D00AE0064A1168064B0B40136004E0034A1168044B0B401360F1
:401B80007047C04604000140FFFFF9FFFFF9FFFF10B500F001FF03680C2B00D1FEE7FEE710B50300084A1068C318084A9A1A802A02DC054A136005E000F0EEFE0C23036035
:401BC0000120404210BDC046CC000020D801002070B50F4E0F4D13E029686B68AC68002202E001C901C30432A242FAD1E868002202E0002102C304328242FAD11035013E47
:401C0000002EE9D100F0CEFEFFF722FFFEE7C046010000003034000010B500230AE0032B03D89A000C49505800E00C4899000C4A885001332F2BF2D9FFF7A8FA094B1B6864
:401C4000002B02D10022074B1A608022D205116801230B43136010BD00110000911B000000000020C000002010B5002404E02000FFF776FF0134E4B2012CF8D9FF22014B89
:401C80001A7010BDD000002010B50400054B1878FF2801D0FFF764FF2000FFF74BFF014B1C7010BDD000002010B5054B1878FF2804D0FFF755FFFF22014B1A7010BDC0463A
:401CC000D000002010B50B4C226860239A4322602268513B9A432260226810230343D8B210432060012000F02FFB236810229343236010BD0000044070B505000E4C226827
:401D00002023134323602368402293432360002000F01AFB23680F2293432360226810232B43D8B210432060012000F00DFB236810229343236070BD00000440F8B5274AC1
:401D400013687F218B43136025490B681B0B1B03244803430B60136820218B431360116840230B431360CA277F00002000F0ECFA1A4C2368102633432360012000F0E4FAB6
:401D8000194B1D682368B3432360002000F0DCFA08231D40236833432360012000F0D4FA2368B3432360002D02D10A2000F0CCFA013F002D01D0002FD7D1084B1A68402136
:401DC0008A431A601A683F318A431A60044A13681B0B1B0305490B431360F8BD00000440080004404902000004000440B60D000010B50400FFF7A2FF2009FFF77DFF0F2082
:401E00002040FFF779FF10BD70B505000078012404E0FFF7EDFF285D0134E4B20028F8D170BDC04610B5FFF7E3FF10BD10B50400FFF784FF2009FFF745FF0F202040FFF772
:401E400041FF10BD10B5282000F066FA0320FFF739FF052000F060FA0320FFF733FF0F2000F05AFA0320FFF72DFF012000F054FA0220FFF727FF052000F04EFA0620FFF71F
:401E8000D5FF0E20FFF7D2FF2C20FFF7CFFF0820FFF7CCFF0120FFF7C9FF0C20FFF7C6FF0320FFF7C3FF052000F036FA10BDC04610B50C20FFF7BAFF0122014B1A7010BD41
:401EC0007E01002010B5064B5B78002B04D1FFF7B9FF0122024B5A70FFF7EAFF10BDC0467E01002010B501280BD0002804D002280CD003280FD012E08039C8B2FFF796FF9C
:401F00000DE04039C8B2FFF791FF08E06C39C8B2FFF78CFF03E02C39C8B2FFF787FF10BD10B500F0BBFB044A136801218B43136000F0B8FB10BDC046000005400004000C46
:401F4000014B18607047C046080105400004000C014B18607047C046140105400004000C014B18607047C0460C01054070B504000D0000F093FBAC40024B1C6000F092FBDE
:401F800070BDC0460800054010B500F087FB064A116801230B43136000F084FB18210120FFF7E4FF10BDC04600000540014B18607047C0463801054010B50E4C8023DB0462
:401FC0002360236823600020FFF7B8FF236823600C22094B1A600320FFF7E8FF3122074B1A60FA20C000FFF7B1FFC8208000FFF7B5FF10BD000105402401054028010540DD
:4020000010B5064B1B78002B04D1FFF7D5FF0122024B1A70FFF7B8FF10BDC04680010020014B18687047C04630010540014B18607047C046300105408023014AD050704757
:402040000000002010B5040000F028FB044A1368C0218B43A4011C43146000F023FB10BD10E400E080225202014B1A607047C04600E100E080225202014B1A607047C04612
:4020800080E100E010B50400FFF7F4FF2000FFF7D3FF0120FFF7D6FFFFF7E4FF10BDC04610B500F0FBFA0D4C23680F22934319000B4B1B7813400B4323600A4A13681360B0
:4020C000094B1C680949214019601168084C214311601A681A6000F0E5FA10BD00FF084060F1FF0F0800084004000840FFFFFEFF0504000010B500F0D1FA074A1368C0212F
:4021000089000B431360054A1368802109060B43136000F0C7FA10BD080008400400084010B5064B1B68002B04D1FFF7B9FF0122024B1A60FFF7DEFF10BDC0468401002084
:4021400010B500F0ABFA044A1168044B0B40136000F0A8FA10BDC04608000840FFFCFFFF10B5040000F09AFA044A1368FF218B431C43146000F096FA10BDC0460800084009
:40218000034B1868C0B27F2290431860C009704710010440014B58647047C0460000002010B5040000F07AFA044A1168044B0B40A4031C43146000F075FA10BD00E400E041
:4021C000FF3FFFFF0222014B1A60704700E100E00222014B1A60704780E100E010B50400FFF7F6FF2000FFF7D5FF0220FFF7D8FFFFF7E8FF10BDC046024A106801231840E2
:402200001060704710020440024A1068012318401060704710030440014B98647047C0460000002010B5040000F038FA044A1168044B0B40A4051C43146000F033FA10BD8C
:4022400000E400E0FFFF3FFF0422014B1A60704700E100E00422014B1A60704780E100E010B50400FFF7F6FF2000FFF7D5FF0320FFF7D8FFFFF7E8FF10BDC046014BD86450
:402280007047C0460000002010B5040000F006FA044A13689B009B08A4071C43146000F001FA10BD00E400E00822014B1A60704700E100E00822014B1A60704780E100E037
:4022C00010B50400FFF7F6FF2000FFF7D7FF0320FFF7DAFFFFF7E8FF10BDC0461F2318401E3B8340014A13607047C04600E100E001BE704770B504000D001F2802D90020BC
:40230000FFF7F6FF1034A40080239B059C4664442068256070BDC04610B5040006E0084B586800F0B1F9074B9C46644480231B029C42F4D8024B9868604300F0A5F910BDD0
:40234000D40000200080FFFF10B5034B1B7B584300F09AF910BDC046D4000020F0B557464E46C0B483B0040000F098F90190E71E2D2F74D83F4B1B78DBB29C4208D83E4B2C
:402380001B78DBB29A463D4B1B78DBB2994631E03B4B1B78DBB29C4208D83A4B1B78DBB29A46394B1B78DBB2994623E0374B1B78DBB29C4208D8364B1B78DBB29A46354BB5
:4023C0001B78DBB2994615E0334B1B78DBB29C4208D8324B1B78DBB29A46314B1B78DBB2994607E02F4B1B78DBB29A462E4B1B78DBB299462D4BDE5D2F2E09D92A2C07D994
:4024000019222B4B1A60052000F03EF9192503E0274B1D683F231D40B54206D9234BDA5D234B1A60052000F02FF91F4B9C4664442378DBB21F4A13601F4B52461A601F4BD0
:402440004A461A600520FFF77FFFB5420AD2174BDA5D174B1A60052000F016F902E00020FFF746FF019800F01DF903B00CBC91469A46F0BDC0F1FF0FC1F1FF0FC2F1FF0F52
:40248000C3F1FF0FC4F1FF0FC5F1FF0FC6F1FF0FC7F1FF0FC8F1FF0FC9F1FF0FCAF1FF0FCBF1FF0FCCF1FF0FCDF1FF0FA83300002CFF0B4028FF0B401CFF0B4020FF0B40FC
:4024C000034B1868C0231B02184000D00120704700010B4010B500F0E1F8044A1368C02109020B43136000F0DDF810BD00010B4010B500F0D3F808490A68084B1A4080244C
:40250000E40122430A600A6813408022120213430B6000F0C7F810BD00010B40FF3FFFFF70B5050000F0BAF80400FFF7C9FF002803D0FFF7DDFF012100E000210848284071
:40254000084A1568084B2B40184310601368012901D1FFF7BFFF200000F0A4F870BDC0460404040010020B40FBFBFBFF10B5244B1B685B0715D5234B1B685B070ED5224BFA
:40258000D969042001401F4C22688A432260DA698243DA611B69002B00D098470420FFF7BFFF174B1B685B0518D5164B1B685B0510D5154BD9698022D20011401148026832
:4025C0008A430260D969114A0A40DA615B69002B00D098478020C000FFF7A2FF084B1B685B030CD5074B1B685B0304D5064B9B69002B00D098478020C002FFF791FF10BDF0
:4026000010020B40E800002088010020FFFBFFFF10B50222084B1A6080221206074B1A607022074B1A6000F039F8064B1A681A6000F038F810BDC046A80100200000104080
:402640000400104028001040044A1168044B1B680B43802109010B431360704704001040A801002010B5064B1B79002B04D1FFF7CFFF0122024B1A71FFF7E6FF10BDC04650
:40268000A8010020000000000230800804D0C0460138FDD1C046C046C0467047EFF3108072B6704780F310887047C046002243088B4274D303098B425FD3030A8B4244D357
:4026C000030B8B4228D3030C8B420DD3FF22090212BA030C8B4202D31212090265D0030B8B4219D300E0090AC30B8B4201D3CB03C01A5241830B8B4201D38B03C01A5241AD
:40270000430B8B4201D34B03C01A5241030B8B4201D30B03C01A5241C30A8B4201D3CB02C01A5241830A8B4201D38B02C01A5241430A8B4201D34B02C01A5241030A8B4273
:4027400001D30B02C01A5241CDD2C3098B4201D3CB01C01A524183098B4201D38B01C01A524143098B4201D34B01C01A524103098B4201D30B01C01A5241C3088B4201D368
:40278000CB00C01A524183088B4201D38B00C01A524143088B4201D34B00C01A5241411A00D20146524110467047FFE701B5002000F0F0F802BDC0460029F7D076E77047A8
:4027C00003460B437FD4002243088B4274D303098B425FD3030A8B4244D3030B8B4228D3030C8B420DD3FF22090212BA030C8B4202D31212090265D0030B8B4219D300E02C
:40280000090AC30B8B4201D3CB03C01A5241830B8B4201D38B03C01A5241430B8B4201D34B03C01A5241030B8B4201D30B03C01A5241C30A8B4201D3CB02C01A5241830AA8
:402840008B4201D38B02C01A5241430A8B4201D34B02C01A5241030A8B4201D30B02C01A5241CDD2C3098B4201D3CB01C01A524183098B4201D38B01C01A524143098B4269
:4028800001D34B01C01A524103098B4201D30B01C01A5241C3088B4201D3CB00C01A524183088B4201D38B00C01A524143088B4201D34B00C01A5241411A00D201465241F2
:4028C000104670475DE0CA0F00D04942031000D34042534000229C4603098B422DD3030A8B4212D3FC22890112BA030A8B420CD3890192118B4208D3890192118B4204D3F0
:4029000089013AD0921100E08909C3098B4201D3CB01C01A524183098B4201D38B01C01A524143098B4201D34B01C01A524103098B4201D30B01C01A5241C3088B4201D3EA
:40294000CB00C01A524183088B4201D38B00C01A5241D9D243088B4201D34B00C01A5241411A00D20146634652415B10104601D34042002B00D54942704763465B1000D3BC
:40298000404201B5002000F005F802BD0029F8D016E770477047C046014B18687047C0464C0100200E4B70B500251E000D4CE41AA410A54204D0AB00F35898470135F8E74A
:4029C00000F024FD084B00251E00084CE41AA410A54204D0AB00F35898470135F8E770BD1834000018340000183400002034000003008218934202D019700133FAE7704787
:402A00000EB410B59DB002A9029008610B48822488604861012040421FABC881084804CBA400006801938C8100F06EF80023029A13701DB010BC08BC03B01847FFFFFF7F8D
:402A40004C010020F0B58E6885B007000C00039201939E4243D890238A89DB001A423ED003250969236801985B1A029363695D43EB0F5D19029B6D1001331B18AB4200D9EC
:402A80001D00530510D52900380000F041FB061E14D0029A216900F0D0FAA289194B134080221343A38112E02A00380000F090FB061E0CD12169380000F0DEFA0C2340225E
:402AC00001203B60A38940421343A38117E0029B2661F61826606561019EED1AA560019BB34200D21E0032000399206800F0AEFA0020A3689B1BA36023689E19266005B002
:402B0000F0BDC0467FFBFFFFF0B59FB0029005938B890F0016001B0610D50B69002B0DD1402100F0F5FA38603861002804D10C23029A01381360D8E040237B61002306ADDE
:402B40006B6120336B761033AB7634002378002B03D1A31B049312D003E0252BF9D00134F4E7A31B320039000298FFF76BFF431C00D1B4E06A69049B944663446B6123789F
:402B8000002B00D1ABE00122002352426A6002A95432521801342B60EB60AB601370AB65534E21780522300000F03CFA002807D00123801B83402A68013413432B60EFE7F0
:402BC0002B68DA0604D55322202102A8121811701A0704D553222B2102A81218117022782A2A03D0099B00200A210EE0059A111D12680591002A01DB099204E05242EA6090
:402C0000022213432B6001340BE02278303A092A04D84B4301349B180120F6E7002800D0099323782E2B1ED163782A2B0AD1059B02341A1D1B680592002B01DA01235B4278
:402C4000079310E000230A201A0001346B6021783039092904D84243013452180123F6E7002B00D00792234E21780322300000F0D9F9002806D04023801B83402A680134F3
:402C800013432B60217806221B48661C297600F0C9F9002812D0194B002B06D10722059B073393430833059314E005AB00933A00134B2900029800E000BF07E005AB0093C5
:402CC0003A000F4B2900029800F08AF80390039B013304D06B69039A9B186B6135E7BB890B985B0601D5012040421FB0F0BDC046D8330000DE330000E23300000000000052
:402D0000452A0000F7B5170001938A680B6900900C00934200DA130022003B6043321278002A01D001333B6023689B0602D53B6802333B60062523681D401ED02300433373
:402D40001B785A1E9341226892061CD53020E1184331087021005A1C45310978A2184332023311700FE022000123193201990098089EB047431C0ED00135E3683A689B1A55
:402D80009D42F0DBDAE72200019943320098089DA847431C02D10120404220E006232068E1683A6803400025042B03D18D1AEB43DB171D40A3682269934201DD9B1AED1848
:402DC0000027BD420AD0220001231A3201990098089EB047431CDED00137F2E70020FEBDF0B58BB006920A0043320793059004920A7E0C00109B6E2A00D1ABE011D8632A14
:402E000022D009D8002A00D1B5E0582A00D0C5E045310A70814A4FE0642A1DD0692A1BD0BCE0732A00D1AAE009D86F2A29D0702A00D0B3E0202209680A43226037E0752A19
:402E40001FD0782A33D0A9E00E001A684236111D196013683370A4E021681A68080606D4490604D5111D19600023D55E02E0111D19601568002D3BDA2D23049A6D42137064
:402E800036E021681A68080606D4490604D51568111D1960ADB202E0111D196015685F4B227E039308276F2A1DD00A271BE022007821453211705A4A19680392081D22687B
:402EC00018600D68100602D4500600D5ADB2D30702D520231A4322601027002D03D1202322689A4322602300002243331A7002E00A274A4B03936368A360002B09DB0422B2
:402F0000216891432160002D05D1049E002B11D07BE0002D79D0049E28003900FFF74CFC039B013E5B5C280033703900FFF7BEFB051EF1D1082F09D12368DB0706D56368A0
:402F40002269934202DC3023013E3370049B9B1B23612BE009681A68080607D4490605D5111D19601368A28A1A8004E0111D1960136862691A600023049E236116E01A6801
:402F8000111D1960166800216268300000F04AF8002801D0801B6060636803E0260042363270012323610023049A1370079B09AA00932100069B0598FFF7A4FE431C02D160
:402FC0000120404227E02369320006990598079DA847431CF4D0236800259B070FD4099BE068984217DA180015E022000123193206990598079EB047431CE1D00135E36884
:40300000099A9B1A9D42F0DBE9E72600039B42361B7833708EE70BB0F0BDC046E9330000FA330000C9B28218904204D003788B4202D00130F8E700207047002310B59A42A0
:4030400003D0CC5CC4540133F9E710BD10B5884202D98B18984201D3002305E09B1A013A08D3995C8154FAE7934203D0CC5CC4540133F9E710BD000070B50500002944D0F3
:403080000C1F2368002B00DAE418280000F0D8F81E4A13681100002B02D16360146031E0A3420DD92268A018834203D118685B688218226063600C6024E0A24203D813002D
:4030C0005A68002AF9D11E689819A0420BD12168711858181960824214D110685268411819605A600EE0A04202D90C232B6009E021686018824203D11068526841182160D0
:4031000062605C60280000F09CF870BDB4010020032370B5CD1C9D43083506000C2D01D20C2501E0002D01DBA94202D90C23336048E0300000F084F8234B1C681A0021006C
:40314000002913D00B685B1B0DD40B2B02D90B60CC181EE08C4202D1636813601AE04B6863600C0016E00C004968E9E7174C2368002B03D1300000F051F82060290030000E
:4031800000F04CF8431C18D00323C41C9C43A0420DD12560300000F054F8200007220B30231D9043C31A0ED05A42E2500BE0211A300000F033F8431CEBD10C233000336060
:4031C00000F03FF8002070BDB4010020B0010020F8B506000C001500002904D11100FFF797FF040018E0002A03D1FFF745FF2C0012E000F027F885420ED929003000FFF7E8
:4032000087FF071E07D021002A00FFF716FF21003000FFF731FF3C002000F8BD002370B5064C050008002360FEF7BAFC431C03D12368002B00D02B6070BDC046D4010020ED
:40324000704770470B1F1A68101F002A04DA891804390B68D01804387047000000000000D8130000E8130000F81300000A1400001C1400002E140000401400005214000096
:4032800064140000741400008614000098140000AA140000BC140000CE140000E014000053656C656363696F6E65205449630000253364007573000053656C656363696F7F
:4032C0006E6520467265712E00000000253464005449633D2020207573000000463D000049633D3132754120494E49434941523F0000000049633D20202020754120203E5D
:403300004F4E3C200000000050756C7365204143455020702066696E0000000050726573696F6E652041434550544152000000007061726120636F6E666967757261723AD2
:403340000000000000300F40000400400F40000438803E4058045F011B40AB40E608E80456405C046408664084089004A804D440D680D880E610EA2028046C80CA08DC02C7
:403380001B01640487019804A880C608D801000004300F4001310F4003330F400C410F4004420F4007430F40030405060708090A0B0C0E0F101112131415161718191B1CD7
:4033C0001D1E1F2021222325262728292A2B2E2F3031323334354300232D302B2000686C4C0065666745464700303132333435363738394142434445460030313233343546
:40340000363738396162636465660000F8B5C046F8BC08BC9E467047ED120000191C0000F8B5C046F8BC08BC9E467047C512000040340000C8000020880000008800000056
:4034400000000000D8010020FF000000010000000000C05D80BB000030000000006CDC02040404000000000000000000000000000000000000000000000000000000000075
:4034800000000000D6330000000000000000000000000000000000000000000000000000000000000000000000000000000000000000000000000000000000000000000003
:4034C00000000000EC0000200000000000000000000000000000000000000000000000000000000000000000000000000000000000000000000000000000000000000000C0
:40350000000000000000000000000000000000000000000000000000000000000000000000000000000000000000000000000000000000000000000000000000000000008B
:40354000000000000000000000000000000000000000000000000000000000000000000000000000000000000000000000000000000000000000000000000000000000004B
:40358000000000000000000000000000000000000000000000000000000000000000000000000000000000000000000000000000000000000000000000000000000000000B
:4035C00000000000000000000000000000000000000000000000000000000000000000000000000000000000000000000000000000000000000000000000000000000000CB
:407FC0007B1111000021000000002400000000000000010000000000000000000000000000000000000000000000000000000000000000000000000000000000000000009E
:0200000490303A
:020000005DF8A9
:0200000490402A
:20000000FFFFFFFF00000000000000000000000000000000000000000000000000000000E4
:0200000490501A
:0C000000000204C81193110004D96F8B9A
:0200000490600A
:0100000001FE
:00000001FF